:020000040800F2
:10000000E0180020A9010008911E00083D1C00080E
:100010008D1E000881160008EB2600080000000075
:10002000000000000000000000000000CD210008DA
:100030008518000800000000351F0008E5220008B0
:10004000C3010008C3010008C3010008C301000880
:10005000C3010008C3010008C3010008C301000870
:10006000C3010008C3010008C3010008C301000860
:10007000C3010008C3010008C3010008C301000850
:10008000C3010008C3010008C3010008C301000840
:10009000C3010008C3010008C3010008C301000830
:1000A000C3010008C3010008C3010008C301000820
:1000B000C3010008C3010008C3010008C301000810
:1000C000C3010008C3010008C3010008C301000800
:1000D000C301000881240008C3010008C30100080F
:1000E000C3010008C3010008C3010008C3010008E0
:1000F000C3010008C3010008C3010008C3010008D0
:10010000C3010008C3010008C3010008C3010008BF
:10011000C3010008C3010008C3010008C3010008AF
:10012000C3010008C3010008C3010008C30100089F
:10013000C3010008C3010008C3010008C30100088F
:10014000C3010008C3010008C3010008C30100087F
:10015000C3010008C3010008C3010008C30100086F
:10016000C3010008C3010008C3010008C30100085F
:10017000C3010008C3010008C3010008C30100084F
:10018000C3010008C3010008DFF810D000F04EFBE7
:10019000004800472D330008AFF30080E01800202E
:1001A00080F30888704700000648804706480047EB
:1001B000FEE7FEE7FEE7FEE7FEE7FEE7FEE7FEE717
:1001C000FEE7FEE7252300088901000840EA010355
:1001D0009B0703D009E008C9121F08C0042AFAD2FD
:1001E00003E011F8013B00F8013B521EF9D27047C1
:1001F000D2B201E000F8012B491EFBD27047002269
:10020000F6E710B513460A4604461946FFF7F0FF15
:10021000204610BD421C10F8011B0029FBD1801A9A
:10022000704700000FB400B58DB010A909900B9075
:1002300000914FF0FF300A9000200C900548069086
:10024000054807906A4609A80F9900F009F90DB012
:100250005DF814FB7D0400089B0400082DE9FF5F96
:100260001D464FF0FF3BD5E9014691465F464FF0F2
:100270000008A9697F1C01988847296A8246884737
:100280000028F6D1BAF1FF3F0CD024F4C064002E50
:1002900019DD600614D5BAF12B0F09D0BAF12D0F74
:1002A0000ED103E0584604B0BDE8F09F44F48064EA
:1002B000A9697F1C01988847761E8246002E02DDC0
:1002C000BAF1300F03D0B9F1000F26D032E0A9699E
:1002D000761E44F400747F1C019888478246002EE5
:1002E00005DDBAF1780F06D0BAF1580F03D0B9F195
:1002F000000F10D01EE0B9F1000F02D0B9F1100FBD
:1003000018D1A969761E24F400747F1C01988847CF
:100310008246102002E0082000E00A20814609E021
:1003200008FB0908A969761E44F400747F1C019833
:1003300088478246002E05DD4946504600F07BF88E
:100340000028EDDAE96901988847A00502D46FF02A
:100350000100A8E7E00725D1600613D5600502D5A6
:10036000C8F1000000E0404629680A1D2A600968BB
:10037000220501D5087015E0220701D5088011E09B
:1003800008600FE02868011D29600068210502D57A
:1003900080F8008006E0210702D5A0F8008001E087
:1003A000C0F8008038467EE730B50B460146002095
:1003B0002022012409E021FA02F59D4205D303FA27
:1003C00002F5491B04FA02F52844151EA2F10102A8
:1003D000F1DC30BD2DE9F05F0546002092469B46DA
:1003E00088460646814640241BE02846414647464B
:1003F000224600F03CFA53465A46C01A914110D3A7
:1004000011461846224600F023FA2D1A67EB010820
:100410004F4622460120002100F01AFA17EB00098E
:100420004E41201EA4F10104DFDC484631462A4635
:100430004346BDE8F09F3A2800D2303820F0200231
:10044000412A01D3A2F13700884201D34FF0FF3097
:100450007047000002681144137801601846704725
:10046000D1600449516104491162002111611146B2
:1004700000F024BA55040008B3080008426842B1ED
:10048000016811F8013B23B1521EC0E90012184661
:1004900070470121C160881E704742685AB1C36825
:1004A000016843B983688B4205D0491E521CC0E9DC
:1004B0000012002070474FF0FF3070472DE9FE4FCB
:1004C000804681EA0300C00F0C46009021F00041F5
:1004D00023F00045B8EB0200A94105D24046214671
:1004E00090461C460B46024623F00040104347D07E
:1004F000270DC7F30A00C3F30A510290401A019076
:1005000040286BDAC3F3130040F4801B0098924636
:1005100020B10023D2EB030A63EB0B0B0198594681
:10052000C0F14002504600F093F906460D46504691
:100530005946019A00F0ABF910EB08006141002424
:1005400087EA115284EAE7731A4340D0009A62B3F3
:10055000019A012A4FEA075215DC001B61EB0201E8
:100560004FF0004202EA0752CDE90042001C41F57B
:10057000801132462B4600F048FB03B0BDE8F08FF7
:1005800040462146F9E7001B61EB0201001C41F5E2
:10059000801300185B412018A2F5001747EB0301F8
:1005A00040EAD570B6196D4111E06D084FEA360684
:1005B00045EAC0754FEA0752001B61EB0201001CBF
:1005C00041F5801149084FEA300000195141324687
:1005D0002B4603B0BDE8F04F00F008BB00980122A5
:1005E00040000023D0EB020263EBE0730098214649
:1005F0004FEAE074B8EB000061EB0401E9E783F037
:1006000000435BE781F0004158E72DE9FE4F81EAA6
:10061000030404F0004421F0004100944FF0000B6B
:1006200023F0004350EA01045ED052EA03045BD099
:10063000C3F30A54C1F30A552C44A4F2F3340194D1
:10064000A0FB0254C1F3130141F48011C3F313035F
:1006500043F4801301FB024400FB034E840A970A13
:1006600044EA815447EA8357A4FB076802958D0A40
:1006700005FB07854FEA932C04FB0C542705029DCC
:100680004FEA065847EA1637B5EB08056EEB070C3C
:10069000870E920E47EA811742EA8312A7FB0201F6
:1006A000B6EB0B0164EB00042B0D43EA0C335E1830
:1006B00044EB1C50DA465146E7FB0201C5F3130434
:1006C0004FEA0B3343EA14534FEA0432019C43EAE6
:1006D0000603A4F10C040294009CCDE900B400F0E0
:1006E00094FA03B0BDE8F08F00200146F9E72DE948
:1006F000F04D81EA030404F0004B21F0004514465C
:100700004FF0000A23F0004150EA050220D054EADD
:1007100001021DD0C5F30A570246C5F31303C1F306
:100720001300C1F30A5640F4801543F48013A7EB7D
:100730000608101BD64608F2FD3873EB050002D3FD
:1007400008F1010801E092185B41B8F1000F03DAEB
:1007500000200146BDE8F08D00204FF480110646D0
:1007600084460EE0171B73EB050705D3121B63EBE2
:10077000050306434CEA010C49084FEA3000921881
:100780005B4150EA0107EDD152EA030012D082EA40
:10079000040083EA0501084305D0101BAB4106D2D3
:1007A0000122002306E000224FF0004302E06FF038
:1007B000010253101AEB06004CEB085110EB0A0033
:1007C00041EB0B01BDE8F04D00F010BAC1F30A5245
:1007D000C1F3130140F2FF3341F480119A4202DA6F
:1007E00000200146704740F233439A42A2F233425E
:1007F00002DC524200F03BB800F02AB830B5041ECB
:1008000071F1000404DB4FF00044404264EB01014D
:10081000141E73F1000405DB1C464FF000435242E6
:1008200063EB0403994208BF904230BD064C074D6C
:1008300006E0E06840F0010394E8070098471034B0
:10084000AC42F6D3FFF7A4FCE03500080036000800
:10085000202A04DB203A00FA02F100207047914080
:10086000C2F1200320FA03F3194390407047202A75
:1008700004DB203A21FA02F00021704721FA02F34A
:10088000D040C2F120029140084319467047202A07
:1008900006DBCB17203A41FA02F043EAE07306E0A8
:1008A00041FA02F3D040C2F12002914008431946B8
:1008B0007047C0B24FF4F05100F0F6B92DE9F34F94
:1008C0008BB04FF0000801F10C000C464FF0010B0B
:1008D00046460DF1080A019062690121019890478E
:1008E000051E2DD0252D2CD0216A8847C0B1626904
:1008F000012101989047216A88470028F7D1411EBD
:1009000062690198904700E0761CA1690B988847BE
:10091000216A88470028F7D1E1690B988847DBE70F
:10092000A1690B9888470746A84201D1761CD3E7F6
:10093000E1690B9888477F1C02D1B8F1000F6FD096
:1009400047E1002762693D463946019890472A28C9
:1009500004D162690121019890470125DFF888924E
:100960006269012101989047A0F130010A290AD259
:100970004F45E5DC07EB870100EB4107303FDFD453
:1009800045F01005ECE7E90601D46FF000476C284C
:100990000AD04C2814D0682815D06A280DD07428A5
:1009A0001CD07A281AD01DE0626901210198904775
:1009B0006C2802D045F0040514E045F002050DE076
:1009C00045F020050AE062690121019890476828F6
:1009D00002D045F0080505E045F400656269012193
:1009E00001989047C4E9015765283DD019DC582883
:1009F0007AD00CDC452837D004DC252826D04128C5
:100A000031D131E046282FD047282CD12CE05B286B
:100A100077D0612828D063287CD0642823D15AE07D
:100A2000D1E06F2848D008DC66281DD067281BD08D
:100A3000692821D06E2816D127E0702845D0732868
:100A400068D0752847D078280DD14DE0A1690B9862
:100A50008847054625283FF469AFE1690B98884728
:100A60006D1C3FF46AAFB4E023466A466FF00100A4
:100A70000B99AFF300809FE045F040006060A8074D
:100A800023464FF0000236D43EE0E8077FF447AF3C
:100A90002068011D21600068290501D506701BE74B
:100AA000290701D5068017E7A90703D5F117C0E983
:100AB000006111E706600FE745F040006060A8079D
:100AC00023464FF0080216D41EE040F60E0125EA38
:100AD0000100606016E045F040006060A807234612
:100AE0004FF00A0207D40FE045F040006060A8070D
:100AF00008D5234610226FF001000B99AFF3008058
:100B00005AE007E0234610226FF001000B99FFF72F
:100B1000A5FB51E04FF000094F464B46632802D039
:100B20005B2807D041E02079C00601D40120A060F5
:100B300001273AE062690121019890475E2805D1BA
:100B40004FF001096269494601989047216939B916
:100B500000210A46534643F82120491C0829FADBA4
:100B6000B0B3216969B9C11700EBD16253110AEB27
:100B7000830122F01F02821A01200B689040034378
:100B80000B6062690121019890475D28E8D1B9F1B5
:100B9000000F09D00020514651F82020D24341F8DF
:100BA0002020401C0828F7DB02AB224600976FF09C
:100BB00001000B99AFF3008000280CDA401C08D12B
:100BC000BBF1000F05D04FF0FF300DB0BDE8F08F46
:100BD000FFE74046F9E7E90701D108F101080644BB
:100BE0004FF0000B78E60000CCCCCC0C10B5141EF6
:100BF00073F1000408DA401C41F1000192185B41D6
:100C00001A4301D120F0010010BD2DE9F04D9246AC
:100C10009B4611B1B1FA81F202E0B0FA80F22032C3
:100C20009046FFF715FE04460F4640EA0A0041EAE7
:100C30000B0153465A46084313D0114653EA0100AC
:100C400019D0C8F140025046FFF711FE05460E4686
:100C5000504659464246FFF7FBFD084305D00120A8
:100C600004E020463946BDE8F08D0020054346EA01
:100C7000E0762C4337430A986305E40AA0EB0800AA
:100C80000022FD0A44EA47540A3002D500200146FA
:100C9000E9E7010510196941DDE9084500196941D5
:100CA000BDE8F04DA2E700007F2801D9002208E04E
:100CB000064A02EB5002C007127800D1120902F076
:100CC0000F020120904008407047000018350008CE
:100CD00010B500F0D9FD10BD2DE9F04106460F46D4
:100CE000154601F045F8A02000F0F2FF642001F065
:100CF00077F8F0B200F0ECFF642001F071F801F039
:100D000037F8A12000F0E4FF642001F069F8002426
:100D10000CE000F095FF3855681EA04202D101F0AA
:100D20000BF801E000F0B2FF601C84B2AC42F0DBD3
:100D300001F03CF80020BDE8F081000010B5502122
:100D40000448FFF75CFA502202490020FFF7C4FF75
:100D500010BD00001C00002070B506460D4601F0D5
:100D600007F8A02000F0B4FF642001F039F808B1C2
:100D7000012070BD304600F0ABFF642001F030F878
:100D800008B10220F5E700240AE0285D00F0A0FF8A
:100D9000642001F025F808B10320EAE7601CC4B222
:100DA000082CF2DB01F002F80020E2E770B5084DF4
:100DB00000240AE005EBC401E206100EFFF7CCFFA9
:100DC0000A2002F04BFA601CC4B20A2CF2D370BDA8
:100DD0001C00002010B5142000F050F8E0B911A05C
:100DE00001F0E4FA15480068154988420DD115A0B4
:100DF00001F0DCFA1648006840F001001449086070
:100E000000201449C1F800040BE013A001F0CEFA51
:100E1000144801F013F804E013A001F0C7FA00F041
:100E2000B5FB10BDE4B88DE8BF9BE585A5426F6FAB
:100E3000744C6F616465720D0A0000001C00002094
:100E4000443322114F5441E4BA8BE4BBB60D0A007F
:100E5000000000206C000020E8B7B3E8BDAC4150B2
:100E6000500D0A0000000108E8BF9BE585A5426F10
:100E70006F744C6F616465720D0A000070B50446B2
:100E80000A2094FBF0F529460BA001F08FFA08E048
:100E9000642002F0E3F912480078772801D101209C
:100EA00070BD201EA4F10101CCB2F1D10DA001F062
:100EB0007DFA0020F4E70000E59CA82564E7A792EE
:100EC000E58685E8BE93E585A5772CE8BF9BE5859B
:100ED000A5426F6F744C6F616465720D0A0000006B
:100EE0007C040020E4B88DE8BF9BE585A5426F6FC8
:100EF000744C6F616465720D0A00000070B586B0B5
:100F000004460D46F7480068002872D12078312841
:100F100009D1012D07D10821042000F0CFFCF2A057
:100F200001F044FA06E32078322815D1012D13D1BF
:100F3000F14801F03BFA0821042000F0BFFCE94829
:100F4000006840F00600E74908600020EB49C1F85E
:100F50000404C1F80804EDE2207833280BD1012DF8
:100F600009D1E74801F022FADE48006840F00800A5
:100F7000DC490860DEE22078342816D1012D14D136
:100F8000D848006840F01000D6490860FFF7D6FE48
:100F9000DC49DDA001F00AFAD248006820F0100018
:100FA000D049086000F0F2FAC4E22078352811D167
:100FB000012D0FD1CB48006840F02000C9490860DE
:100FC0000020CE49C1F80404C1F80804D4A001F0FF
:100FD000EDF9AFE2207836280CD1012D0AD1C148B5
:100FE000006840F04000BF490860D8A001F0DEF979
:100FF000A0E219E0207837280AD1012D08D1E0A01D
:1010000001F0D4F94FF47A7002F028F900F07EFF75
:101010002078382886D1012D84D1BA4830388168AB
:10102000DBA001F0C3F985E2AE48007800F00400CF
:1010300000287CD0207801287AD1852D7FD1A9483D
:10104000006820F00200A74908608021E01C01F040
:1010500077FCAA49C1F80C0494F8841094F8830032
:1010600001EB0020A549D1F80C14884264D1A348B3
:10107000D0F80804401CA149C1F808049948007838
:1010800000F0200080B30846D0F800149D482C38AA
:1010900050F8210080309949D1F8002499492C3921
:1010A00041F82200954991F80814491E01F0010108
:1010B000924A02EBC1108022E11CFFF787F88F48AB
:1010C00090F8080400F0010078BB8C48D0F80804C0
:1010D0000122C2EB50028948D0F8000402EB002143
:1010E000864801F0B5FB20E0FFE7844991F8081439
:1010F000491E01F00701814A02EBC1108022E11C68
:10110000FFF764F87D4890F8080400F0070060B924
:101110007A49D1F808140122C2EBD101A24A02EBAC
:1011200081205214754900F0FEFCA0A001E055E0BA
:1011300005E001F03BF902E09DA001F037F92078CD
:10114000042828D1012DFCD198A001F02FF9654881
:10115000007800F02000F8B1684890F8080400F02A
:10116000010058B16548D0F800040002634AD2F883
:10117000082400EB5201614801F06AFBFFF716FEFC
:101180005848006820F024005649086089A001F002
:101190000DF900F0FBF9CDE1584890F8080400F093
:1011A00007000028F7D0554991F8081449078A0D1F
:1011B0005249D1F80814C9087B4B03EB81204F49F1
:1011C00000F0B1FC4748006820F004004549086081
:1011D0004FF47A7002F042F800F098FE414800782F
:1011E00000F00800002849D0002005901C2D41D1B6
:1011F000207856283AD16078452837D1A0785228EF
:1012000034D1E078532831D1207949282ED1607922
:101210004F282BD1A0794E2828D1E0792D2825D12F
:1012200005A805A905AA05ABCDE9031065A1CDE97F
:10123000013200902046FEF7F5FF072812D11C224C
:1012400021463048FEF7C2FFFFF7B0FD65A001F070
:10125000ADF82448006820F008002249086000F03A
:1012600095F90AE063A001F0A1F806E065A001F09D
:101270009DF802E067A001F099F85BE11948007859
:1012800000F0200060B3207831282ADB207839284C
:1012900027DC012D25D1207830381849C1F8000409
:1012A00000211648D0F8002416482C3840F82210A7
:1012B000124991F8000401F095FA1048D0F8001492
:1012C00058A001F073F80748006840F0060005498F
:1012D000086000200949C1F80404C1F8080429E1A4
:1012E000B6E0B1E000000020E693A6E999A4E5AEDF
:1012F0008CE688900D0A00009C3500086C000020E8
:10130000583500084C000020E5BD93E5898DE7893C
:1013100088E69CACE58FB7E4B8BA3A25730D0A00AD
:10132000E8AFB7E8BE93E585A5E8A681E4B88BE809
:10133000BDBDE588B0E79A84464C415348E59D978A
:10134000E58FB73A317E390D0A000000E8AFB7E803
:10135000BE93E585A5E59D97E58FB728317E3929B0
:10136000EFBC8CE4BBA5E4BDBFE794A8E5BD93E466
:10137000B8ADE79A84E7A88BE5BA8F0D0A000000A4
:10138000E58DB3E5B086E9878DE590AF0D0A0000E5
:10139000E59D97E58FB731E79A84E995BFE5BAA651
:1013A000E4B8BA256400000000000108060000004F
:1013B00015000000E4B88BE8BDBDE5AE8CE6889072
:1013C0000D0A000056455253494F4E2D5625642EA6
:1013D00025642D323025642D25642D25642D25644A
:1013E0003A256400E8AEBEE7BDAEE68890E58A9F88
:1013F0000D0A0000E6A0BCE5BC8FE99499E8AFAF08
:101400000D0A0000E5AD97E6AF8DE99499E8AFAF1E
:101410000D0A0000E995BFE5BAA6E99499E8AFAFD7
:101420000D0A0000E5B086E8A681E4B88BE8BDBDF2
:10143000E588B0E79A84464C415348E59D97E58F8F
:10144000B73A25640D0A00003BA000F0AFFF71E041
:101450003D48007800F0400000286BD0207831280B
:1014600067DB2078392864DC012D62D12078A0F177
:10147000300136A000F09AFFFFF760FC207830388A
:101480003B49C1F80004002617E03949B1F80014BF
:10149000090401EB86204FF48062354901F008FA17
:1014A000344901EB86204A14314900F03CFB4FF4EB
:1014B00080612F48FEF7A3FE761C2D48D0F800145B
:1014C0002D4850F82100B6EB902FDED32848D0F8F5
:1014D0000014294830F82100C0F30900F0B1244974
:1014E000B1F80014090401EB86202149D1F8003439
:1014F000214931F82310C1F309021D4901F0D8F93F
:101500001B49D1F800341C4931F82310C1F30902FA
:10151000184901EB8620164900F005FB17A000F0E2
:1015200045FF0948006820F040000749086000F0C6
:101530002DF800BF06B070BDE59D97E58FB7E99423
:1015400099E8AFAF0D0A000000000020E58DB3E57B
:10155000B086E4BDBFE794A8E59D97E58FB7E4B8F2
:10156000BA2564E79A84E7A88BE5BA8F0D0A0000D4
:101570006C0000200000010820000020E58699E5AD
:1015800085A5E5AE8CE688900D0A000010B50CA08C
:1015900000F00CFF0FA000F009FF12A000F006FF02
:1015A00018A000F003FF1DA000F000FF21A000F034
:1015B000FDFE28A000F0FAFE2EA000F0F7FE10BD00
:1015C000426F6F744C6F61646572E4BFA1E681AFD6
:1015D0000D0A00005B315DE693A6E999A441E58C14
:1015E000BA0D0A005B325DE4B8B2E58FA349415001
:1015F000E4B88BE8BDBD41E58CBAE7A88BE5BA8FAE
:101600000D0A00005B335DE8AEBEE7BDAE4F54414E
:10161000E78988E69CACE58FB70D0A005B345DE690
:101620009FA5E8AFA24F5441E78988E69CACE58FBF
:10163000B70D0A005B355DE59091E5A496E983A8B6
:10164000466C617368E4B88BE8BDBDE7A88BE5BA6A
:101650008F0D0A005B365DE4BDBFE794A8E5A49654
:10166000E983A8466C617368E58685E7A88BE5BACF
:101670008F0D0A005B375DE9878DE590AF0D0A009D
:1016800000BFFEE721B1026842F00102026003E000
:10169000026822F00102026070470000016821F038
:1016A000010101600021016041608160C160016150
:1016B000212141614A49884204D13D21484A103ADA
:1016C00091608CE046491831884205D14FF474612D
:1016D000434A103A916082E041493031884205D155
:1016E0004FF474113E4A103A916078E03C49483119
:1016F000884205D14FF07461394A103A91606EE02A
:1017000037496031884204D13649354A103AD160B0
:1017100065E033497831884204D13349304A103A80
:10172000D1605CE02E499031884204D12F492C4A87
:10173000103AD16053E02A49A831884205D14FF0D0
:101740003D51274A103AD16049E02949884204D1E5
:101750003D21274A083A116041E025491831884265
:1017600005D14FF47461224A083A116037E02049EC
:101770003031884205D14FF474111D4A083A116086
:101780002DE01B494831884205D14FF07461184A59
:10179000083A116023E016496031884204D11149AA
:1017A000134A121F11601AE011497831884204D19E
:1017B0000D490F4A121F116011E00D499031884206
:1017C00004D10A490A4A121F116008E00849A831E9
:1017D000884204D14FF03D51054A121F11607047F5
:1017E000106002403D000020400F002000003D201E
:1017F000106402400146486880B2704710B500226C
:101800000268134B1A40CC680B6823434C6923438E
:101810008C692343CC6923430C6A23434C6A2343DA
:101820008C6A23434C6B23438C6B23431A43026023
:10183000426922F00702D1E90B3423431A43426183
:101840000B6943604B6883608B68C36010BD000008
:101850003F801CF00AB1016100E0C1607047416047
:1018600070470021016041608160C1600161416198
:101870008161C161016241628162C1620163416350
:1018800081637047704700001CB50121022000F001
:1018900053FB01208DF804008DF8060000208DF820
:1018A000070003208DF805000002009069460248F9
:1018B00000F04CF91CBD00000004024070B5044665
:1018C0000D460C2C1FD2DFE804F006080A0C0E109F
:1018D000121416181A1C002416E0082414E0102410
:1018E00012E0182410E020240EE028240CE030241C
:1018F0000AE0382408E0402406E0482404E05024AC
:1019000002E0582400E000BF00BF00F0E9F8002624
:1019100008E00221204600F00BF804F10800C4B2F0
:10192000701CC6B2AE42F4DB00F070F870BD00006F
:1019300070B504460A460026092502B909E0012AC5
:1019400001D1160205E0022A01D1160201E04FF48E
:10195000407600F0D7F80546092D28D115480068D3
:1019600020F440701349086008460068304308605E
:101970000846006820F0F80008600846006844F057
:10198000020108430B4908600846006840F48030B3
:10199000086000F0B7F805460648006820F002002D
:1019A000044908600846006820F0F80008602846EE
:1019B00070BD0000103C024009201349096801F481
:1019C0008031B1F5803F01D101201CE00E4909684A
:1019D00001F0100109B1062015E00B49096801F476
:1019E000807109B102200EE00749096801F0E001A9
:1019F00009B1072007E00449096801F0020109B1B3
:101A0000082000E0092070470C3C024003480068B1
:101A100040F000400149086070470000103C02405F
:101A200030B502460C46092500F06CF80546092D34
:101A300017D10D48006820F440700B490860084633
:101A4000006808600846006840F0010008601470F3
:101A500000F058F805460448006820F001000249EB
:101A60000860284630BD0000103C024000B585B03B
:101A70000121080300F070FA00F062FB684600F0F4
:101A800099FB0020ADF80000ADF80C004FF4827017
:101A9000ADF802004FF40070ADF80A000020ADF878
:101AA0000E00ADF804000720ADF810000120ADF8DD
:101AB00008000220ADF806006946074800F021FB47
:101AC0004FF48041054800F0B7F80121024800F0CA
:101AD000FEFA05B000BD00000030014000040240E5
:101AE0000548006800F0004028B1044802490C395C
:101AF0000860034808607047103C024023016745B6
:101B0000AB89EFCD08B509200090FFF755FF009095
:101B100002E0FFF751FF00909DF800000128F8D087
:101B20009DF8000008BD70B506460C461546FFF747
:101B3000D7FF06E021783046FFF772FF761C641C61
:101B40006D1E002DF6D1FFF761FF70BDF0B50A469E
:101B500000210023002400BF3DE0012505FA01F328
:101B6000156805EA03049C4234D105684F0003263A
:101B7000BE40B543056015794E00B5400668354353
:101B800005601579012D02D01579022D16D18568D1
:101B90004F000326BE40B543856055794E00B540E1
:101BA000866835438560456801268E40B5434560AB
:101BB000456896798E40B6B235434560C5684F009A
:101BC0000326BE40B543C560D5794E00B540C66812
:101BD0003543C560491C1029BFD3F0BDF0B50023C3
:101BE00000244D07ED0E02FA05F3CE1000F120059A
:101BF00055F826504E07F70E0F26BE40B543CF10BE
:101C000000F1200646F82750CE1000F1200555F8C7
:101C1000265045EA0304CE1000F1200545F8264081
:101C2000F0BD0246002013690B400BB1012000E01B
:101C300000207047418370470183704700BFFEE773
:101C400070B5002500241AE04FF480710E48FFF7AC
:101C5000F3FF022001F044FB4FF400710A48FFF744
:101C6000E0FF10B18020204105434FF48071064809
:101C7000FFF7E0FF022001F033FB601CC4B2082C28
:101C8000E2DB284670BD00000004024010B54FF4AE
:101C900000710E48FFF7CEFF022001F021FB4FF448
:101CA00080710A48FFF7C8FF022001F019FB4FF4CA
:101CB00080710648FFF7BEFF022001F011FB4FF4D0
:101CC00000710248FFF7B8FF10BD00000004024099
:101CD00070B505464FF480711648FFF7ABFF00243E
:101CE00020E080202041284028B14FF400711148A5
:101CF000FFF7A2FF04E04FF400710E48FFF79AFFD0
:101D0000022001F0EDFA4FF480710A48FFF794FFCA
:101D1000022001F0E5FA4FF480710648FFF78AFFD0
:101D2000601CC4B2082CDCDB4FF400710148FFF7E3
:101D300083FF70BD0004024010B54FF400710B48E2
:101D4000FFF77AFF022001F0CBFA4FF480710748C9
:101D5000FFF772FF022001F0C3FA4FF480710348CD
:101D6000FFF768FF022001F0BBFA10BD000402403B
:101D700010B54FF400710C48FFF75EFF4FF480710F
:101D80000948FFF759FF022001F0AAFA4FF4007149
:101D90000548FFF74FFF022001F0A2FA4FF48071CF
:101DA0000148FFF747FF10BD0004024010B54FF493
:101DB00000710A48FFF73EFF4FF480710748FFF7B4
:101DC0003BFF022001F08CFA4FF400710348FFF74B
:101DD00033FF022001F084FA10BD0000000402402D
:101DE00010B504464FF400711348FFF725FF022099
:101DF00001F076FA4FF480710F48FFF71DFF0220C3
:101E000001F06EFA4FF400710B48FFF70AFF48B17A
:101E10004FF480710848FFF70DFF022001F060FACF
:101E2000012010BD4FF480710348FFF703FF02202B
:101E300001F056FA0020F4E70004024010B5044611
:101E40002068B0F1005F0DD308492068884209D8A6
:101E50002068FEF7A5F90649606808600846006832
:101E6000804702E003A000F0A1FA10BDFFFF0120AF
:101E700018000020E8B7B3E8BDAC41E58886E58CE2
:101E8000BAE5A4B1E8B4A50D0A00000000BFFEE762
:101E90007047000070B5002100230F22C4781CB3E6
:101EA000174C246804F4E064C4F5E064C4F307212B
:101EB000C1F10404E3B20A4144789C40E1B2847861
:101EC000144021430C07210E0E4C0578615504780F
:101ED00004F01F050124AC4005786D11AD0005F13B
:101EE000E025C5F8004109E0047804F01F0501244D
:101EF000AC40054D0678761145F8264070BD0000CF
:101F00000CED00E000E400E080E100E0BFF34F8F63
:101F10000648006800F4E06005490843001D0349D5
:101F20000860BFF34F8F00BFFEE700000CED00E03C
:101F30000000FA057047000029B1064A1268024302
:101F4000044B1A6004E0034A12688243014B1A6092
:101F5000704700003038024029B1064A1268024337
:101F6000044B1A6004E0034A12688243014B1A6072
:101F70007047000044380240F0B5002100220024E0
:101F8000022500260223324F3F6807F00C0121B1E1
:101F9000042905D0082937D105E02E4F076036E027
:101FA0002D4F076033E02A4F3F1F3F68C7F380562D
:101FB000274F3F1F3F6807F03F036EB1264FB7FB27
:101FC000F3F7DFF88CC0ACF1040CDCF800C0CCF304
:101FD000881C07FB0CF40CE01E4FB7FBF3F7DFF88F
:101FE00070C0ACF1040CDCF800C0CCF3881C07FB1B
:101FF0000CF4174F3F1F3F68C7F301477F1C7D005C
:10200000B4FBF5F7076002E0124F076000BF00BFA6
:102010000F4F3F6807F0F0010909104F7A5C07681D
:10202000D74047600A4F3F6807F4E051890A0B4FD9
:102030007A5C4768D7408760054F3F6807F4604186
:10204000490B064F7A5C4768D740C760F0BD000077
:10205000083802400024F40000127A000400002036
:1020600070B505460E46002405E0FF2000F006F896
:102070002855601C84B2B442F7DB70BD10B504462D
:1020800000BF02210A4800F02EF80028F9D02146AE
:10209000074800F034F800BF0121054800F023F89C
:1020A0000028F9D0024800F027F8C0B210BD0000A7
:1020B0000030014070B505460E46002404E0285D5E
:1020C000FFF7DCFF601C84B2B442F8DB70BD21B1C5
:1020D000028842F04002028004E002884FF6BF739B
:1020E0001A40028070470246002013890B400BB152
:1020F000012000E0002070470146888970478181F7
:10210000704710B50022028802F441520B884C88B7
:1021100023438C882343CC8823430C8923434C8955
:1021200023438C892343CC8923431A430280838B26
:102130004FF2FF74234083830B8A038210BD00009B
:102140001CB501210220FFF7F7FE052203211748E5
:10215000FFF744FD052204211448FFF73FFD052247
:1021600011461248FFF73AFD02208DF804000020C6
:102170008DF8060001208DF8070003208DF805007A
:102180003820009069460948FFF7E0FC4FF4804092
:10219000009001208DF8040069460448FFF7D6FC42
:1021A00080210348FFF748FD1CBD000000040240E9
:1021B000001802400021018041808180C18001819E
:1021C00041818181C18107210182704770470000F0
:1021D0000CB50020019000903448006840F4803035
:1021E0003249086000BF3148006800F400300090B8
:1021F0000198401C0190009818B90198B0F5A04FC3
:10220000F1D12A48006800F4003010B1012000909C
:1022100001E0002000900098012846D1234840307A
:10222000006840F080502149403108602048006833
:1022300040F440401E4908601C48083000681B49B3
:10224000083108600846006840F40040086008460D
:10225000006840F4A05008601648091F0860081F75
:10226000006840F08070091F086000BF0F480068D8
:1022700000F000700028F9D040F205700E490860A7
:102280000A480830006820F0030008490831086057
:102290000846006840F00200086000BF03480830AC
:1022A000006800F00C000828F8D10CBD003802408E
:1022B0000070004008544007003C0240042808D148
:1022C0004FF0E021096941F004014FF0E022116173
:1022D00007E04FF0E021096921F004014FF0E0220E
:1022E000116170477047000010B504466FF004009C
:1022F000FFF7E4FFE11704EB5171C1F3C701074A8F
:1023000011701046007800EB4001C1EBC0104FF691
:10231000FF7101EAC0000249088010BD14000020CE
:102320001600002010B51548006840F470001349ED
:1023300008601348006840F001001149086000205F
:102340000F49083108600E4800680E4908400C49E2
:1023500008600D48091D0860081F006820F48020EF
:10236000091F0860002006490C310860FFF730FFA4
:102370004FF0006001498039086010BD88ED00E031
:1023800000380240FFFFF6FE103000240548011F10
:10239000486588654830C865002008800248496D56
:1023A00008607047801400207C0400200FB438B50A
:1023B00005A800901248009A049900F0E3FA002062
:1023C000009000240DE000BF80210E4800F0E7F8E7
:1023D0000028F9D00A48015D0A4800F082F9601C23
:1023E00084B20748FDF716FFA042ECD800BF802159
:1023F000044800F0D4F80028F9D038BC5DF814FB8C
:102400007C0C00200010014000B58FB00121880530
:10241000FFF792FD1748FFF741F96846FFF721FAE9
:1024200040F201100490C0060090002003900B9031
:10243000114802904FF480600690002008904FF4FD
:10244000807009900D4801900020079005904FF48E
:1024500040300A9069460748FFF7D0F90121054846
:10246000FFF710F9012240210448001F00F08EF808
:102470000FB000BD886402407C04002004100140BD
:1024800010B510212B4800F08AF8002851D01021F7
:10249000284800F057F8274800F01EF92648FFF7B3
:1024A000A9F940F20111081A24490988084423496E
:1024B000088008460088401E214908441F49496D8C
:1024C00048601E48406D08301C4948650846406D0C
:1024D000C96D884203D11948001D011F486517487E
:1024E0000088C0F50060B0F5807F07DD13480088E4
:1024F000134908441149496D086006E010480F4926
:10250000496D086000200D49088000210A48FFF746
:10251000B9F840F201110848FFF7A1F90748406DEA
:10252000002201680448FFF795F901210248FFF7EE
:10253000A9F810BD00100140886402407C140020FE
:102540007C04002001F40072B2F5007F00D100BFCE
:10255000CA430280704710B50022002340F66A1477
:10256000A14200D100BF0A1201249440A3B2DC436F
:10257000048010BD21B1828942F40052828104E0BE
:1025800082894DF6FF731A40828170471AB1838A9F
:102590000B43838202E0838A8B4383827047024627
:1025A0000020B1F5007F00D100BF13880B400BB1B4
:1025B000012000E000207047F0B50346002400260B
:1025C0000025002040F66A17B94200D100BF184626
:1025D000C1F3421401F01F06012707FA06F5012C8A
:1025E00001D10C3004E0022C01D1103000E0143095
:1025F0001AB107682F43076002E00768AF4307601E
:10260000F0BD00002DE9FF4705460E460024A14617
:1026100000BFA046B08900B100BF2C8A24F440540A
:10262000F08804432C82AC8941F20C608443B0886A
:1026300031890843718908430443AC81AC8A24F48E
:102640004074B0890443AC826846FFF795FC20488B
:10265000854202D01F48854202D1DDF80C9001E08E
:10266000DDF80890A88900F4004040B109EBC900EA
:1026700000EB091031684900B0FBF1F707E009EB06
:10268000C90000EB091031688900B0FBF1F7642044
:10269000B7FBF0F004012009642101FB1078A88940
:1026A00000F4004040B1322000EBC800B0FBF1F074
:1026B00000F00700044308E0322000EB081064211A
:1026C000B0FBF1F000F00F0004432C81BDE8FF8760
:1026D000001001400014014001468888C0F3080042
:1026E0007047C1F308028280704700BFFEE7000018
:1026F00010B588B0044601211020FFF72DFC012100
:102700000846FFF719FC4FF4C060069002208DF8D0
:102710001C0000208DF81E0003208DF81D000120F4
:102720008DF81F0006A92348FFF710FA0722092198
:102730002048FFF753FA07220A211E48FFF74EFAF6
:1027400002940020ADF80C00ADF80E00ADF81000BA
:102750000C20ADF812000020ADF8140002A91648B4
:10276000FFF750FF01211448FFF704FF012240F258
:1027700024411148FFF720FF25208DF80400002098
:102780008DF805008DF8060001208DF8070001A8DE
:10279000FFF780FBFFF738FEFFF7F8FD40F224411A
:1027A0000548FFF7D8FE10210348FFF7CBFE08B01D
:1027B00010BD0000000002400010014010B500F004
:1027C000A5F84FF480410648FFF734FA0620FFF7DA
:1027D00055FC4FF480410248FFF72EFA10BD00006F
:1027E0000004024038B5044600200090D8208DF83F
:1027F0000000A0B28DF801002004000A8DF802004C
:102800002004C0B28DF8030000F080F8FFF7D6FF77
:102810004FF480410748FFF70DFA04216846FFF79F
:1028200049FC4FF480410348FFF706FA00F06EF8C8
:1028300038BD00000004024010B54FF48041034849
:10284000FFF7FAF9FFF712F910BD0000000402408B
:1028500038B505460C460020009002208DF8000097
:10286000C4F30F208DF8010024F07F408DF80200A2
:102870002002C0B28DF8030000F048F8FFF79EFF79
:102880004FF480410948FFF7D5F904216846FFF766
:1028900011FC4FF480712846FFF70CFC4FF4804187
:1028A0000248FFF7C9F900F031F838BD00040240D2
:1028B000F8B504460D4616460020009003208DF81A
:1028C0000000200C8DF80100200A8DF80200E0B213
:1028D0008DF8030000F01AF8FFF770FF4FF4804105
:1028E0000948FFF7A7F904216846FFF7E3FBB1B2F7
:1028F0002846FFF7B5FB4FF480410348FFF79CF9EA
:1029000000F004F8F8BD00000004024010B500BF5C
:102910004FF480410948FFF78DF90520FFF7AEFB22
:10292000FF20FFF7ABFB04464FF480410348FFF75D
:1029300083F904F001000028EAD110BD0004024030
:1029400030B50246002041F2210414E0137880EAF9
:10295000032000230CE000F400451DB184EA40058B
:10296000A8B203E04FF6FF7505EA40005D1CEBB22C
:10297000082BF0DB521C0B1EA1F10105E9B2E5D1D9
:1029800030BD000037B514460846064B6A4621465E
:1029900000F0DCF804466946002000F05AFC2046AE
:1029A0003EBD00005332000802E008C8121F08C1F3
:1029B000002AFAD170477047002001E001C1121FC0
:1029C000002AFBD1704700002DE9FF5F82B0002193
:1029D000DDE90430020DDDF840B0034318D044F6C1
:1029E0001050A2F2FF3242431514119801281FD053
:1029F000A5EB0B00401C5FEA000A4FF000064E4FAB
:102A0000DFF83891B046504615D5CAF1000413E0FE
:102A1000119801244AA3012801D16FEA0B01029801
:102A2000119AC0E90031C0E9024206B0BDE8F09F4A
:102A3000CBF10000DFE704460021404A491842EB91
:102A40000450CDE9001012E0E00707D032463B46C3
:102A500040464946FDF7D9FD8046894632463B4609
:102A600010461946FDF7D1FD06460F466410002CAE
:102A7000EAD1DDE90401DDE90023BAF1000F06DA4D
:102A8000FDF7C3FD42464B46FDF7BFFD05E0FDF7F0
:102A90002EFE42464B46FDF72AFE04460E46002215
:102AA000284BFDF7ABFE03D84FF0FF30014607E09F
:102AB0000022254B20463146FDF700FDFDF786FE3E
:102AC000102409E0002C0ADB0A220023FDF782FC17
:102AD000039B30321A55641E50EA0102F2D1641C85
:102AE000039AC4F111031444119A012A03D001225C
:102AF00008430DD10AE0084304D000204FF0110B29
:102B0000119072E7A3EB0B056D1E0DE05B4504DD34
:102B10004FF0000205F1010504E003DA4FF0000276
:102B2000A5F10105002AECD002981199C0E9023103
:102B3000C0E9004579E70000000014400000F03FC4
:102B4000300000000000F0430000E03F2DE9FF4F9F
:102B500095B09A46884606460025EEE1252877D1AD
:102B600000242746F94A0121039400E0044316F8A3
:102B7000013F203B01FA03F01042F7D130782A28B8
:102B800011D06FF02F033078A0F13002092A16D847
:102B9000039A44F0020402EB820203EB4202104467
:102BA000761C0390EFE758F8042B0392002A03DA0F
:102BB000504244F40054039044F00204761C3078F0
:102BC0002E2816D116F8010F44F004042A280DD03F
:102BD0006FF02F023078A0F13003092B09D807EBF2
:102BE000870302EB4303C718761CF3E758F8047B0E
:102BF000761C30786C280FD006DC4C2817D068285B
:102C00000DD06A2814D104E0742810D07A280FD18E
:102C10000DE044F400140AE044F4801401E044F4AC
:102C200040147278824202D104F58014761C761C1E
:102C3000307866280BD013DC582877D009DC0028C0
:102C400075D04528F6D04628F4D047281AD193E10C
:102C500018E0632835D0642879D0652812D18BE13B
:102C6000702873D008DC6728F1D069286FD06E28EF
:102C70000DD06F2806D1ACE073282CD0752874D005
:102C8000782853D05246179990476D1C54E1C4F3ED
:102C90000250022809D003280DD0D8F800100428CB
:102CA0000DD00D6008F1040846E1D8F80010EA17CD
:102CB000C1E90052F6E7D8F800100D80F2E70D7078
:102CC000F0E718F8041B8DF8001000208DF80100C3
:102CD000EB46012003E058F804BB4FF0FF306107DA
:102CE0004FF0000102D40DE009F101018946B9421B
:102CF0000FDA8145F8DB1BF809100029F4D108E050
:102D000009F1010189468142FADB1BF8091000290B
:102D1000F6D103985346A0EB090721463846179A87
:102D200000F080FA284400EB090507E044E008E1E0
:102D30000DE01BF8010B524617999047B9F10109B4
:102D4000F7D2534621463846179AF2E039E00A2175
:102D5000C4F302524FF0000B0091022A06D058F83B
:102D6000040BC117032A09D00AE023E008F1070089
:102D700020F00702F2E80201904605E000B2C11718
:102D8000042A01D140B2C117002906DA0A460021FF
:102D9000404261EB02012D2202E0220504D52B22E4
:102DA0008DF80420012203E0E20701D02022F7E79A
:102DB000914657E00A2100E010214FF0000B0091EE
:102DC0000BE010214FF0000B44F0040408270091A1
:102DD00003E008204FF0000B0090C4F30252022AD7
:102DE00005D058F8040B0021032A08D008E008F1A8
:102DF000070020F00702F2E80201904603E080B2EB
:102E0000042A00D1C0B24FF0000922072AD5327837
:102E1000702A07D0DDF800C08CF0100C5CEA0B0CB7
:102E200005D00EE040228DF80420012208E050EA8F
:102E3000010306D030238DF804308DF805200222DE
:102E40009146009B83F0080353EA0B030AD150EA32
:102E5000010201D1620705D530228DF804204FF020
:102E600001097F1E3278582A04D039A20C920CAA8C
:102E700002920BE03BA2F9E75B46009AFDF7AAFA43
:102E80000C9B9B5C029A521E0292137050EA010244
:102E9000F2D1029804A9081A00F1200B600702D5AC
:102EA00024F4803400E001275F4502DDA7EB0B002E
:102EB00000E0002000EB0B01009003984944401A09
:102EC0000390E00306D453462146179A039800F076
:102ED000A9F90544002706E001A85246C05D1799EC
:102EE00090476D1C7F1C4F45F6DBE0030CD5534625
:102EF0002146179A039800F095F9054404E0302024
:102F00005246179990476D1C0099481E0090002961
:102F1000F5DC08E00298029952460078491C0291BB
:102F2000179990476D1CBBF10001ABF1010BF1DC6F
:102F30005BE100F065F90544761C307800287FF4E9
:102F40000DAE19B02846BDE8F08F00000928010039
:102F5000303132333435363738396162636465660F
:102F600000000000303132333435363738394142D1
:102F70004344454600000000600700D4062708F1DE
:102F8000070020F00700F0E80223804603F0004C21
:102F90005FEA0C0001D097A009E0200501D596A0BA
:102FA00005E0E00701D095A001E0AFF24C001390DE
:102FB000307823F0004365280CD006DC452809D082
:102FC00046281DD047287FD13BE0662818D06728C7
:102FD0007AD136E00021112F01DB112000E0781CAE
:102FE000CDE9000104A90CA8FFF7EEFCDDE90D0115
:102FF0000C9A4FF0000B07F10109109200914EE07E
:103000004FF000400097CDE9011004A90CA8FFF78C
:10301000DBFCDDE90D020C9B0F994FF0000B914694
:103020001093009211B9791C00EB0109B7EB09006C
:1030300003D4C0F1FF3B07F10109A9EB07000190A0
:1030400042E0012F00DA01270021112F01DD1120BC
:1030500000E03846CDE9000104A90CA8FFF7B4FC54
:10306000DDE90D010C9A00914FF0000BB94610926A
:1030700021070FD4009A4A4503DA914601E0A9F1ED
:103080000109B9F1010F05DD109AA9F10101515CA7
:103090003029F4D0B84202DA10F1040F03DA01212A
:1030A000CDE9011010E0002803DC8344A9EB000106
:1030B00002E0411C494500DD8946A0EB0B00401CA5
:1030C00001904FF000400290200705D40198484538
:1030D00002DB4FF0FF30019000208DF84B0002988A
:1030E0000DF14B07B0F1004F25D002200C902B20A2
:1030F0000D90029800280CDA404202902D200D908D
:1031000007E00A210298FDF74FF93031029007F8E5
:10311000011D0C99481E0C900029F2DC0298002831
:10312000EFD1791E0D980870307800F0200040F043
:10313000450007F8020D11A8C01BC01D029013988E
:10314000007800B1012000EB0901019801EBE0716A
:10315000029801440398401A401E0390E00306D4ED
:1031600053462146179A039800F05CF805441398DB
:10317000007818B15246179990476D1CE00323D58B
:1031800053462146179A039800F04CF805441BE07B
:10319000BBF1000F07DB0098584504DD1098179924
:1031A00010F80B0001E01799302052469047019823
:1031B0000BF1010B401E05F10105019004D12E20F9
:1031C0005246179990476D1CB9F10001A9F1010908
:1031D000DEDC05E017F8010B5246179990476D1C8D
:1031E0000299481E02900029F4DC53462146179AA2
:1031F00003989EE62D0000002B0000002000000038
:103200002DE9F041044600251E461746880404D4E3
:1032100005E039462020B0476D1C641EF9D52846CC
:10322000BDE8F0812DE9F041044600251E46904698
:10323000C80301D5302700E02027880404D505E025
:1032400041463846B0476D1C641EF9D52846BDE896
:10325000F0810A68531C0B601070704770B504460B
:103260004FF4077094FBF0F0C6B24FF4077094FB74
:10327000F0F100FB114085B205E04FF4077000F05B
:1032800009F8701EC6B2002EF7D115B1284600F01D
:1032900001F870BD0146114A12884A434FF0E023FD
:1032A0005A6100229A611A46126942F001021A61BB
:1032B00000BF4FF0E022106900F001021AB100F4E3
:1032C0008032002AF5D04FF0E022126922F001028C
:1032D0004FF0E0231A6100229A6170471600002027
:1032E0000146114A12784A434FF0E0235A61002206
:1032F0009A611A46126942F001021A6100BF4FF04A
:10330000E022106900F001021AB100F48032002AB4
:10331000F5D04FF0E022126922F001024FF0E023D5
:103320001A6100229A61704714000020A820FEF75D
:10333000DBFF4FF4E130FFF7DBF9FDF7C9FCFFF7E6
:103340007BFAFDF747FDC7E00A20FFF787FF6348D8
:10335000806D6249496D88421BD0604A926D127936
:103360005E4B9B6D1B78D21A521CD1B25B4A926D98
:103370001068FDF7C3FD5948806D083057498865CE
:103380000846806DC96D884203D15448001D011F55
:1033900088655348007800F0020090B15148D0F899
:1033A0000404642806D350A0FFF700F800204D491C
:1033B000C1F804044B48D0F80404401C4949C1F842
:1033C00004044748007800F001000028BBD04548BD
:1033D000D0F80004401C454A52F8201044A0FEF7E3
:1033E000E5FF4048D0F80004401C404911F8200097
:1033F00000F00300002866D108210420FEF75EFAE1
:10340000002413E0A2023749B1F8001402EB014096
:103410004FF480623349FFF74BFA384901EB8420BF
:103420004A143049FEF77FFB601CC4B22D48D0F827
:103430000004401C2D4951F82000B4EB902FE1D33B
:103440002848D0F80004401C31F82000C0F30900DF
:10345000F0B1A3022349B1F8001403EB0140214964
:10346000D1F80034214931F82310C1F309021D4974
:10347000FFF71EFA1B49D1F800341C4931F823101C
:10348000C1F309021D4901EB84201649FEF74BFBED
:103490001448D0F8000428B900201449091F086016
:1034A000FDF784FC00BFBFF34F8F1548006800F4A0
:1034B000E06014490843001D11490860BFF34F8FB5
:1034C00000BF00BFFEE710A0FEF770FF04480068D1
:1034D00020F001000249086036E700007C1400205B
:1034E000000000206C0000204300000020000020AD
:1034F000E995BFE5BAA625640000000000000108B8
:103500000CED00E00000FA05E995BFE5BAA6E994E4
:1035100099E8AFAF00000000DDDDDDDDDCBBBBDD29
:10352000DDDDDDDDDDDDDDDD988888888888888863
:103530007777777777888888855555566666666683
:103540006666666666688888833333322222222262
:10355000222222222228888DE8AFB7E8AEBEE7BD3E
:10356000AE4F5441E78988E69CACE58FB7EFBC8C41
:10357000E6A0BCE5BC8FE4B8BA56455253494F4E5D
:103580002D56312E302D323032352D30352D323909
:103590002D31313A33380D0A00000000E9809AE8F5
:1035A000BF87586D646F656DE58D8FE8AEAE2CE416
:1035B000B8B2E58FA3494150E4B88BE8BDBD41E501
:1035C0008CBAE7A88BE5BA8FEFBC8CE4BDBFE7945B
:1035D000A82E62696EE6A0BCE5BC8F0D0A00000053
:1035E00000360008000000201C000000A829000888
:1035F0001C3600081C000020C4180000B829000870
:1036000000000000000000000102030401020304A6
:0C36100006070809000000000000000090
:040000050800018965
:00000001FF
