:020000040800F2
:1000000078240020A1010008FB0B0008F30B000876
:10001000F70B000819070008B312000800000000E1
:10002000000000000000000000000000A10D00081A
:100030001309000800000000750C0008B90E000844
:10004000BB010008BB010008BB010008BB010008A0
:10005000BB010008BB010008BB010008BB01000890
:10006000BB010008BB010008BB010008BB01000880
:10007000BB010008BB010008BB010008BB01000870
:10008000BB010008BB010008BB010008BB01000860
:10009000BB010008BB010008BB010008BB01000850
:1000A000BB010008BB010008BB010008BB01000840
:1000B000BB010008BB010008BB010008BB01000830
:1000C000BB010008BB010008BB010008BB01000820
:1000D000BB01000851100008BB010008BB0100086B
:1000E000BB010008BB010008BB010008BB01000800
:1000F000BB010008BB010008BB010008BB010008F0
:10010000BB010008BB010008BB010008BB010008DF
:10011000BB010008BB010008BB010008BB010008CF
:10012000BB010008BB010008BB010008BB010008BF
:10013000BB010008BB010008BB010008BB010008AF
:10014000BB010008BB010008BB010008BB0100089F
:10015000BB010008BB010008BB010008BB0100088F
:10016000BB010008BB010008BB010008BB0100087F
:10017000BB010008BB010008BB010008BB0100086F
:10018000BB010008BB010008DFF810D000F020FA26
:10019000004800475D1C0008AFF300807824002071
:1001A0000648804706480047FEE7FEE7FEE7FEE711
:1001B000FEE7FEE7FEE7FEE7FEE7FEE7F90E0008D2
:1001C00089010008421C10F8011B0029FBD1801A8C
:1001D000704730B50B46014600202022012409E07B
:1001E00021FA02F59D4205D303FA02F5491B04FAF0
:1001F00002F52844151EA2F10102F1DC30BD2DE903
:10020000F05F0546002092469B468846064681469A
:1002100040241BE0284641464746224600F0F9F9B3
:1002200053465A46C01A914110D3114618462246E9
:1002300000F0E0F92D1A67EB01084F462246012035
:10024000002100F0D7F917EB00094E41201EA4F160
:100250000104DFDC484631462A464346BDE8F09FAC
:100260002DE9FE4F804681EA0300C00F0C46009046
:1002700021F0004123F00045B8EB0200A94105D26E
:100280004046214690461C460B46024623F000405D
:10029000104347D0270DC7F30A00C3F30A51029059
:1002A000401A019040286BDAC3F3130040F4801B1E
:1002B0000098924620B10023D2EB030A63EB0B0BAC
:1002C00001985946C0F14002504600F093F90646A5
:1002D0000D4650465946019A00F0ABF910EB080064
:1002E0006141002487EA115284EAE7731A4340D03F
:1002F000009A62B3019A012A4FEA075215DC001BEB
:1003000061EB02014FF0004202EA0752CDE90042E0
:10031000001C41F5801132462B4600F0ABF903B0CA
:10032000BDE8F08F40462146F9E7001B61EB020172
:10033000001C41F5801300185B412018A2F500173E
:1003400047EB030140EAD570B6196D4111E06D0825
:100350004FEA360645EAC0754FEA0752001B61EBCB
:100360000201001C41F5801149084FEA30000019D4
:10037000514132462B4603B0BDE8F04F00F06BB957
:100380000098012240000023D0EB020263EBE073EF
:10039000009821464FEAE074B8EB000061EB0401DD
:1003A000E9E783F000435BE781F0004158E72DE97E
:1003B000FE4F81EA030404F0004421F00041009460
:1003C0004FF0000B23F0004350EA01045ED052EAE4
:1003D00003045BD0C3F30A54C1F30A552C44A4F2BE
:1003E000F3340194A0FB0254C1F3130141F48011D2
:1003F000C3F3130343F4801301FB024400FB034ED9
:10040000840A970A44EA815447EA8357A4FB0768A1
:1004100002958D0A05FB07854FEA932C04FB0C54CB
:100420002705029D4FEA065847EA1637B5EB08053F
:100430006EEB070C870E920E47EA811742EA831291
:10044000A7FB0201B6EB0B0164EB00042B0D43EAA2
:100450000C335E1844EB1C50DA465146E7FB0201B0
:10046000C5F313044FEA0B3343EA14534FEA043243
:10047000019C43EA0603A4F10C040294009CCDE91C
:1004800000B400F0F7F803B0BDE8F08F002001469B
:10049000F9E72DE9F04D81EA030404F0004B21F067
:1004A000004514464FF0000A23F0004150EA0502CF
:1004B00020D054EA01021DD0C5F30A570246C5F305
:1004C0001303C1F31300C1F30A5640F4801543F43B
:1004D0008013A7EB0608101BD64608F2FD3873EB15
:1004E000050002D308F1010801E092185B41B8F160
:1004F000000F03DA00200146BDE8F08D00204FF424
:100500008011064684460EE0171B73EB050705D3E2
:10051000121B63EB050306434CEA010C49084FEA42
:10052000300092185B4150EA0107EDD152EA030016
:1005300012D082EA040083EA0501084305D0101BAB
:10054000AB4106D20122002306E000224FF0004317
:1005500002E06FF0010253101AEB06004CEB085159
:1005600010EB0A0041EB0B01BDE8F04D00F073B851
:10057000C1F30A52C1F3130140F2FF3341F4801179
:100580009A4202DA00200146704740F233439A4211
:10059000A2F2334202DC524200F03BB800F02AB82B
:1005A00030B5041E71F1000404DB4FF000444042FA
:1005B00064EB0101141E73F1000405DB1C464FF0CF
:1005C0000043524263EB0403994208BF904230BD9E
:1005D000064C074D06E0E06840F0010394E8070090
:1005E00098471034AC42F6D3FFF7D2FDC81C000880
:1005F000E81C0008202A04DB203A00FA02F100205F
:1006000070479140C2F1200320FA03F31943904050
:100610007047202A04DB203A21FA02F000217047BB
:1006200021FA02F3D040C2F120029140084319465A
:100630007047202A06DBCB17203A41FA02F043EA42
:10064000E07306E041FA02F3D040C2F1200291408B
:1006500008431946704710B5141E73F1000408DAF8
:10066000401C41F1000192185B411A4301D120F076
:10067000010010BD2DE9F04D92469B4611B1B1FA33
:1006800081F202E0B0FA80F220329046FFF7B2FF2A
:1006900004460F4640EA0A0041EA0B0153465A4617
:1006A000084313D0114653EA010019D0C8F14002A3
:1006B0005046FFF7AEFF05460E46504659464246A5
:1006C000FFF798FF084305D0012004E02046394693
:1006D000BDE8F08D0020054346EAE0762C43374321
:1006E0000A986305E40AA0EB08000022FD0A44EA28
:1006F00047540A3002D500200146E9E701051019E8
:100700006941DDE9084500196941BDE8F04DA2E7FE
:1007100010B500F0FFF810BD00BFFEE721B1026880
:1007200042F00102026003E0026822F0010202606E
:1007300070470000016821F00101016000210160A3
:1007400041608160C1600161212141614A49884263
:1007500004D13D21484A103A91608CE04649183155
:10076000884205D14FF47461434A103A916082E0A7
:1007700041493031884205D14FF474113E4A103A54
:10078000916078E03C494831884205D14FF074616E
:10079000394A103A91606EE037496031884204D19D
:1007A0003649354A103AD16065E03349783188429C
:1007B00004D13349304A103AD1605CE02E4990317F
:1007C000884204D12F492C4A103AD16053E02A497B
:1007D000A831884205D14FF03D51274A103AD160E7
:1007E00049E02949884204D13D21274A083A11604D
:1007F00041E025491831884205D14FF47461224AFD
:10080000083A116037E020493031884205D14FF471
:1008100074111D4A083A11602DE01B494831884285
:1008200005D14FF07461184A083A116023E0164967
:100830006031884204D11149134A121F11601AE035
:1008400011497831884204D10D490F4A121F1160B5
:1008500011E00D499031884204D10A490A4A121F19
:10086000116008E00849A831884204D14FF03D5199
:10087000054A121F11607047106002403D000020C1
:10088000400F002000003D201064024001464868EF
:1008900080B2704710B500220268134B1A40CC6832
:1008A0000B6823434C6923438C692343CC6923435E
:1008B0000C6A23434C6A23438C6A23434C6B2343C7
:1008C0008C6B23431A430260426922F00702D1E98C
:1008D0000B3423431A4342610B6943604B688360C6
:1008E0008B68C36010BD00003F801CF04160704702
:1008F0000021016041608160C160016141618161ED
:10090000C161016241628162C162016341638163CD
:10091000704770471CB50121022000F0ADF901209D
:100920008DF804008DF8060000208DF807000320E4
:100930008DF80500000200906946024800F0EEF8CC
:100940001CBD00000004024070B505460E4600F0D4
:10095000ADF8002405E02819002100F007F8601C1C
:10096000C4B2B442F7DB00F06FF870BD70B5044656
:100970000A460026092502B909E0012A01D116021A
:1009800005E0022A01D1160201E04FF4407600F0A2
:100990009FF80546092D28D11548006820F44070BD
:1009A000134908600846006830430860084600683C
:1009B00020F0F80008600846006844F0020108438F
:1009C0000B4908600846006840F48030086000F079
:1009D0007FF805460648006820F0020004490860D8
:1009E0000846006820F0F8000860284670BD000046
:1009F000103C024009201349096801F48031B1F527
:100A0000803F01D101201CE00E49096801F010016E
:100A100009B1062015E00B49096801F4807109B19C
:100A200002200EE00749096801F0E00109B1072042
:100A300007E00449096801F0020109B1082000E05B
:100A4000092070470C3C02400348006840F0004019
:100A50000149086070470000103C024030B5024672
:100A60000C46092500F034F80546092D19D10E4829
:100A7000006820F440700C4908600846006840F4A3
:100A8000007008600846006840F0010008601460CB
:100A900000F01EF805460448006820F001000249F5
:100AA0000860284630BD0000103C02400548006840
:100AB00000F0004028B1044802490C39086003489E
:100AC00008607047103C024023016745AB89EFCDB9
:100AD00008B509200090FFF78DFF009002E0FFF7B6
:100AE00089FF00909DF800000128F8D09DF80000D3
:100AF00008BD2DE9F04107460D461646FFF7D6FF23
:100B0000002405E055F824103846FFF7A7FF641CC1
:100B1000B442F7D3FFF798FFBDE8F081F0B50A467D
:100B200000210023002400BF3DE0012505FA01F368
:100B3000156805EA03049C4234D105684F0003267A
:100B4000BE40B543056015794E00B5400668354393
:100B500005601579012D02D01579022D16D1856811
:100B60004F000326BE40B543856055794E00B54021
:100B7000866835438560456801268E40B5434560EB
:100B8000456896798E40B6B235434560C5684F00DA
:100B90000326BE40B543C560D5794E00B540C66852
:100BA0003543C560491C1029BFD3F0BDF0B5002303
:100BB00000244D07ED0E02FA05F3CE1000F12005DA
:100BC00055F826504E07F70E0F26BE40B543CF10FE
:100BD00000F1200646F82750CE1000F1200555F808
:100BE000265045EA0304CE1000F1200545F82640C2
:100BF000F0BD00BFFEE700BFFEE7704770B5002103
:100C000000230F22C4781CB3174C246804F4E0645A
:100C1000C4F5E064C4F30721C1F10404E3B20A415E
:100C200044789C40E1B28478144021430C07210EA3
:100C30000E4C05786155047804F01F050124AC4082
:100C400005786D11AD0005F1E025C5F8004109E01A
:100C5000047804F01F050124AC40054D0678761198
:100C600045F8264070BD00000CED00E000E400E017
:100C700080E100E07047000029B1064A1268024393
:100C8000044B1A6004E0034A12688243014B1A6065
:100C9000704700003038024029B1064A126802430A
:100CA000044B1A6004E0034A12688243014B1A6045
:100CB0007047000044380240F0B5002100220024B3
:100CC000022500260223324F3F6807F00C0121B1B4
:100CD000042905D0082937D105E02E4F076036E0FA
:100CE0002D4F076033E02A4F3F1F3F68C7F3805600
:100CF000274F3F1F3F6807F03F036EB1264FB7FBFA
:100D0000F3F7DFF88CC0ACF1040CDCF800C0CCF3D6
:100D1000881C07FB0CF40CE01E4FB7FBF3F7DFF861
:100D200070C0ACF1040CDCF800C0CCF3881C07FBED
:100D30000CF4174F3F1F3F68C7F301477F1C7D002E
:100D4000B4FBF5F7076002E0124F076000BF00BF79
:100D50000F4F3F6807F0F0010909104F7A5C0768F0
:100D6000D74047600A4F3F6807F4E051890A0B4FAC
:100D70007A5C4768D7408760054F3F6807F4604159
:100D8000490B064F7A5C4768D740C760F0BD00004A
:100D9000083802400024F40000127A00000000200D
:100DA000704700000CB500200190009034480068A6
:100DB00040F480303249086000BF3148006800F4D8
:100DC000003000900198401C0190009818B90198DB
:100DD000B0F5A04FF1D12A48006800F4003010B1FE
:100DE0000120009001E0002000900098012846D1E9
:100DF00023484030006840F080502149403108606D
:100E00002048006840F440401E4908601C480830F3
:100E100000681B49083108600846006840F400403B
:100E200008600846006840F4A05008601648091F92
:100E30000860081F006840F08070091F086000BF4C
:100E40000F48006800F000700028F9D040F20570EB
:100E50000E4908600A480830006820F0030008497D
:100E6000083108600846006840F00200086000BFD2
:100E700003480830006800F00C000828F8D10CBDC9
:100E8000003802400070004008544007003C024017
:100E9000042808D14FF0E021096941F004014FF026
:100EA000E022116107E04FF0E021096921F004011F
:100EB0004FF0E022116170477047000010B5044602
:100EC0006FF00400FFF7E4FFE11704EB5171C1F389
:100ED000C701074A11701046007800EB4001C1EBD2
:100EE000C0104FF6FF7101EAC0000249088010BD32
:100EF000100000201200002010B51548006840F4D2
:100F00007000134908601348006840F0010011495F
:100F1000086000200F49083108600E4800680E493B
:100F200008400C4908600D48091D0860081F00684A
:100F300020F48020091F0860002006490C31086059
:100F4000FFF730FF4FF0006001498039086010BDA5
:100F500088ED00E000380240FFFFF6FE103000246C
:100F60000548011F486588654830C865002008802D
:100F70000248496D086070471820002014100020B6
:100F80000FB438B505A800901248009A049900F0F3
:100F9000F9F90020009000240DE000BF80210E48E8
:100FA00000F0E1F80028F9D00A48015D0A4800F095
:100FB0007CF9601C84B20748FFF704F9A042ECD822
:100FC00000BF8021044800F0CEF80028F9D038BCDA
:100FD0005DF814FB141800200010014000B58FB01C
:100FE00001218805FFF748FE1648FFF7A3FB684676
:100FF000FFF77EFC40F201100490C0060090002034
:1010000003900B90104802904FF4806006900020EF
:10101000089009900D4801900020079005904FF42A
:1010200040300A9069460748FFF734FC0121054823
:10103000FFF774FB012240210448001F00F08AF8EA
:101040000FB000BD8864024014100020041001405D
:1010500010B51021294800F086F800284CD0102146
:10106000264800F053F8254800F01AF92448FFF705
:101070000DFC40F20111081A224908800846008838
:10108000401E214908441F49496D48601D48406D74
:1010900008301C4948650846406DC96D884203D137
:1010A0001848001D011F486516480088C0F50060FB
:1010B000FF2807DD14481349496D086000201149D5
:1010C000088006E00F4800880F4908440D49496D23
:1010D000086000210A48FFF721FB0A48406D0068BC
:1010E00007490C31086040F201110548FFF7FEFB8B
:1010F00001210348FFF712FB10BD00000010014062
:1011000088640240142000201410002001F40072B2
:10111000B2F5007F00D100BFCA430280704710B50E
:101120000022002340F66A14A14200D100BF0A1237
:1011300001249440A3B2DC43048010BD21B1828914
:1011400042F40052828104E082894DF6FF731A4016
:10115000828170471AB1838A0B43838202E0838ABB
:101160008B438382704702460020B1F5007F00D197
:1011700000BF13880B400BB1012000E00020704736
:10118000F0B50346002400260025002040F66A172B
:10119000B94200D100BF1846C1F3421401F01F0646
:1011A000012707FA06F5012C01D10C3004E0022CCE
:1011B00001D1103000E014301AB107682F430760E6
:1011C00002E00768AF430760F0BD00002DE9FF476C
:1011D00005460E460024A14600BFA046B08900B1D6
:1011E00000BF2C8A24F44054F08804432C82AC893C
:1011F00041F20C608443B088318908437189084307
:101200000443AC81AC8A24F44074B0890443AC82BA
:101210006846FFF751FD2048854202D01F488542AD
:1012200002D1DDF80C9001E0DDF80890A88900F407
:10123000004040B109EBC90000EB091031684900DA
:10124000B0FBF1F707E009EBC90000EB09103168CA
:101250008900B0FBF1F76420B7FBF0F0040120092E
:10126000642101FB1078A88900F4004040B13220CD
:1012700000EBC800B0FBF1F000F00700044308E009
:10128000322000EB08106421B0FBF1F000F00F00F9
:1012900004432C81BDE8FF87001001400014014089
:1012A00001468888C0F308007047C1F308028280B5
:1012B000704700BFFEE7000010B588B0044601216A
:1012C0001020FFF7E9FC01210846FFF7D5FC4FF499
:1012D000C060069002208DF81C0000208DF81E00D2
:1012E00003208DF81D0001208DF81F0006A923485A
:1012F000FFF714FC072209212048FFF757FC0722BB
:101300000A211E48FFF752FC02940020ADF80C00A1
:10131000ADF80E00ADF810000C20ADF81200002062
:10132000ADF8140002A91648FFF750FF0121144838
:10133000FFF704FF012240F224411148FFF720FF8C
:1013400025208DF8040000208DF805008DF806009A
:1013500001208DF8070001A8FFF750FCFFF73EFEC3
:10136000FFF7FEFD40F224410548FFF7D8FE1021AB
:101370000348FFF7CBFE08B010BD0000000002409C
:101380000010014037B514460846064B6A46214610
:1013900000F0DCF804466946002000F05AFC2046C4
:1013A0003EBD0000531C000802E008C8121F08C11F
:1013B000002AFAD170477047002001E001C1121FD6
:1013C000002AFBD1704700002DE9FF5F82B00021A9
:1013D000DDE90430020DDDF840B0034318D044F6D7
:1013E0001050A2F2FF3242431514119801281FD069
:1013F000A5EB0B00401C5FEA000A4FF000064E4FC1
:10140000DFF83891B046504615D5CAF1000413E014
:10141000119801244AA3012801D16FEA0B01029817
:10142000119AC0E90031C0E9024206B0BDE8F09F60
:10143000CBF10000DFE704460021404A491842EBA7
:101440000450CDE9001012E0E00707D032463B46D9
:1014500040464946FEF7ABFF8046894632463B464A
:1014600010461946FEF7A3FF06460F466410002CEF
:10147000EAD1DDE90401DDE90023BAF1000F06DA63
:10148000FEF795FF42464B46FEF791FF05E0FFF75A
:1014900000F842464B46FEF7FCFF04460E4600228B
:1014A000284BFFF77DF803D84FF0FF30014607E0E7
:1014B0000022254B20463146FEF7D2FEFFF758F8B2
:1014C000102409E0002C0ADB0A220023FEF797FE15
:1014D000039B30321A55641E50EA0102F2D1641C9B
:1014E000039AC4F111031444119A012A03D0012272
:1014F00008430DD10AE0084304D000204FF0110B3F
:10150000119072E7A3EB0B056D1E0DE05B4504DD4A
:101510004FF0000205F1010504E003DA4FF000028C
:10152000A5F10105002AECD002981199C0E9023119
:10153000C0E9004579E70000000014400000F03FDA
:10154000300000000000F0430000E03F2DE9FF4FB5
:1015500095B09A46884606460025EEE1252877D1C3
:1015600000242746F94A0121039400E0044316F8B9
:10157000013F203B01FA03F01042F7D130782A28CE
:1015800011D06FF02F033078A0F13002092A16D85D
:10159000039A44F0020402EB820203EB420210447D
:1015A000761C0390EFE758F8042B0392002A03DA25
:1015B000504244F40054039044F00204761C307806
:1015C0002E2816D116F8010F44F004042A280DD055
:1015D0006FF02F023078A0F13003092B09D807EB08
:1015E000870302EB4303C718761CF3E758F8047B24
:1015F000761C30786C280FD006DC4C2817D0682871
:101600000DD06A2814D104E0742810D07A280FD1A4
:101610000DE044F400140AE044F4801401E044F4C2
:1016200040147278824202D104F58014761C761C34
:10163000307866280BD013DC582877D009DC0028D6
:1016400075D04528F6D04628F4D047281AD193E122
:1016500018E0632835D0642879D0652812D18BE151
:10166000702873D008DC6728F1D069286FD06E2805
:101670000DD06F2806D1ACE073282CD0752874D01B
:10168000782853D05246179990476D1C54E1C4F303
:101690000250022809D003280DD0D8F800100428E1
:1016A0000DD00D6008F1040846E1D8F80010EA17E3
:1016B000C1E90052F6E7D8F800100D80F2E70D708E
:1016C000F0E718F8041B8DF8001000208DF80100D9
:1016D000EB46012003E058F804BB4FF0FF306107F0
:1016E0004FF0000102D40DE009F101018946B94231
:1016F0000FDA8145F8DB1BF809100029F4D108E066
:1017000009F1010189468142FADB1BF80910002921
:10171000F6D103985346A0EB090721463846179A9D
:1017200000F080FA284400EB090507E044E008E1F6
:101730000DE01BF8010B524617999047B9F10109CA
:10174000F7D2534621463846179AF2E039E00A218B
:10175000C4F302524FF0000B0091022A06D058F851
:10176000040BC117032A09D00AE023E008F107009F
:1017700020F00702F2E80201904605E000B2C1172E
:10178000042A01D140B2C117002906DA0A46002115
:10179000404261EB02012D2202E0220504D52B22FA
:1017A0008DF80420012203E0E20701D02022F7E7B0
:1017B000914657E00A2100E010214FF0000B009104
:1017C0000BE010214FF0000B44F0040408270091B7
:1017D00003E008204FF0000B0090C4F30252022AED
:1017E00005D058F8040B0021032A08D008E008F1BE
:1017F000070020F00702F2E80201904603E080B201
:10180000042A00D1C0B24FF0000922072AD532784D
:10181000702A07D0DDF800C08CF0100C5CEA0B0CCD
:1018200005D00EE040228DF80420012208E050EAA5
:10183000010306D030238DF804308DF805200222F4
:101840009146009B83F0080353EA0B030AD150EA48
:10185000010201D1620705D530228DF804204FF036
:1018600001097F1E3278582A04D039A20C920CAAA2
:1018700002920BE03BA2F9E75B46009AFEF7BFFC41
:101880000C9B9B5C029A521E0292137050EA01025A
:10189000F2D1029804A9081A00F1200B600702D5C2
:1018A00024F4803400E001275F4502DDA7EB0B0044
:1018B00000E0002000EB0B01009003984944401A1F
:1018C0000390E00306D453462146179A039800F08C
:1018D000A9F90544002706E001A85246C05D179902
:1018E00090476D1C7F1C4F45F6DBE0030CD553463B
:1018F0002146179A039800F095F9054404E030203A
:101900005246179990476D1C0099481E0090002977
:10191000F5DC08E00298029952460078491C0291D1
:10192000179990476D1CBBF10001ABF1010BF1DC85
:101930005BE100F065F90544761C307800287FF4FF
:101940000DAE19B02846BDE8F08F0000092801004F
:101950003031323334353637383961626364656625
:1019600000000000303132333435363738394142E7
:101970004344454600000000600700D4062708F1F4
:10198000070020F00700F0E80223804603F0004C37
:101990005FEA0C0001D097A009E0200501D596A0D0
:1019A00005E0E00701D095A001E0AFF24C001390F4
:1019B000307823F0004365280CD006DC452809D098
:1019C00046281DD047287FD13BE0662818D06728DD
:1019D0007AD136E00021112F01DB112000E0781CC4
:1019E000CDE9000104A90CA8FFF7EEFCDDE90D012B
:1019F0000C9A4FF0000B07F10109109200914EE094
:101A00004FF000400097CDE9011004A90CA8FFF7A2
:101A1000DBFCDDE90D020C9B0F994FF0000B9146AA
:101A20001093009211B9791C00EB0109B7EB090082
:101A300003D4C0F1FF3B07F10109A9EB07000190B6
:101A400042E0012F00DA01270021112F01DD1120D2
:101A500000E03846CDE9000104A90CA8FFF7B4FC6A
:101A6000DDE90D010C9A00914FF0000BB946109280
:101A700021070FD4009A4A4503DA914601E0A9F103
:101A80000109B9F1010F05DD109AA9F10101515CBD
:101A90003029F4D0B84202DA10F1040F03DA012140
:101AA000CDE9011010E0002803DC8344A9EB00011C
:101AB00002E0411C494500DD8946A0EB0B00401CBB
:101AC00001904FF000400290200705D4019848454E
:101AD00002DB4FF0FF30019000208DF84B000298A0
:101AE0000DF14B07B0F1004F25D002200C902B20B8
:101AF0000D90029800280CDA404202902D200D90A3
:101B000007E00A210298FEF764FB3031029007F8E3
:101B1000011D0C99481E0C900029F2DC0298002847
:101B2000EFD1791E0D980870307800F0200040F059
:101B3000450007F8020D11A8C01BC01D02901398A4
:101B4000007800B1012000EB0901019801EBE07180
:101B5000029801440398401A401E0390E00306D403
:101B600053462146179A039800F05CF805441398F1
:101B7000007818B15246179990476D1CE00323D5A1
:101B800053462146179A039800F04CF805441BE091
:101B9000BBF1000F07DB0098584504DD109817993A
:101BA00010F80B0001E01799302052469047019839
:101BB0000BF1010B401E05F10105019004D12E200F
:101BC0005246179990476D1CB9F10001A9F101091E
:101BD000DEDC05E017F8010B5246179990476D1CA3
:101BE0000299481E02900029F4DC53462146179AB8
:101BF00003989EE62D0000002B000000200000004E
:101C00002DE9F041044600251E461746880404D4F9
:101C100005E039462020B0476D1C641EF9D52846E2
:101C2000BDE8F0812DE9F041044600251E469046AE
:101C3000C80301D5302700E02027880404D505E03B
:101C400041463846B0476D1C641EF9D52846BDE8AC
:101C5000F0810A68531C0B6010707047A820FFF7D2
:101C60002DF94FF4E130FFF727FBFEF751FD00207F
:101C700004E01049104A42F82010401CB0F5806F73
:101C8000F7D304210820FEF75FFE4FF480620A4973
:101C90000420FEF72EFF002406E0084A52F8241024
:101CA00007A0FFF76DF9641CB4F5806FF5D300BF92
:101CB000FEE70000785634121400002000000808E7
:101CC00025780D0A00000000E81C00080000002034
:101CD00014000000A8130008FC1C000814000020D9
:101CE00064240000B813000800000000010203048F
:0C1CF000010203040607080900000000C0
:040000050800018965
:00000001FF
