:020000040800F2
:10000000E0180020A9010008951D0008411B000808
:10001000911D0008F91500080B25000800000000DC
:10002000000000000000000000000000EF1F0008BA
:10003000FD17000800000000391E00080521000817
:10004000C3010008C3010008C3010008C301000880
:10005000C3010008C3010008C3010008C301000870
:10006000C3010008C3010008C3010008C301000860
:10007000C3010008C3010008C3010008C301000850
:10008000C3010008C3010008C3010008C301000840
:10009000C3010008C3010008C3010008C301000830
:1000A000C3010008C3010008C3010008C301000820
:1000B000C3010008C3010008C3010008C301000810
:1000C000C3010008C3010008C3010008C301000800
:1000D000C3010008A1220008C3010008C3010008F1
:1000E000C3010008C3010008C3010008C3010008E0
:1000F000C3010008C3010008C3010008C3010008D0
:10010000C3010008C3010008C3010008C3010008BF
:10011000C3010008C3010008C3010008C3010008AF
:10012000C3010008C3010008C3010008C30100089F
:10013000C3010008C3010008C3010008C30100088F
:10014000C3010008C3010008C3010008C30100087F
:10015000C3010008C3010008C3010008C30100086F
:10016000C3010008C3010008C3010008C30100085F
:10017000C3010008C3010008C3010008C30100084F
:10018000C3010008C3010008DFF810D000F04EFBE7
:100190000048004735310008AFF30080E018002028
:1001A00080F30888704700000648804706480047EB
:1001B000FEE7FEE7FEE7FEE7FEE7FEE7FEE7FEE717
:1001C000FEE7FEE7452100088901000840EA010337
:1001D0009B0703D009E008C9121F08C0042AFAD2FD
:1001E00003E011F8013B00F8013B521EF9D27047C1
:1001F000D2B201E000F8012B491EFBD27047002269
:10020000F6E710B513460A4604461946FFF7F0FF15
:10021000204610BD421C10F8011B0029FBD1801A9A
:10022000704700000FB400B58DB010A909900B9075
:1002300000914FF0FF300A9000200C900548069086
:10024000054807906A4609A80F9900F009F90DB012
:100250005DF814FB7D0400089B0400082DE9FF5F96
:100260001D464FF0FF3BD5E9014691465F464FF0F2
:100270000008A9697F1C01988847296A8246884737
:100280000028F6D1BAF1FF3F0CD024F4C064002E50
:1002900019DD600614D5BAF12B0F09D0BAF12D0F74
:1002A0000ED103E0584604B0BDE8F09F44F48064EA
:1002B000A9697F1C01988847761E8246002E02DDC0
:1002C000BAF1300F03D0B9F1000F26D032E0A9699E
:1002D000761E44F400747F1C019888478246002EE5
:1002E00005DDBAF1780F06D0BAF1580F03D0B9F195
:1002F000000F10D01EE0B9F1000F02D0B9F1100FBD
:1003000018D1A969761E24F400747F1C01988847CF
:100310008246102002E0082000E00A20814609E021
:1003200008FB0908A969761E44F400747F1C019833
:1003300088478246002E05DD4946504600F07BF88E
:100340000028EDDAE96901988847A00502D46FF02A
:100350000100A8E7E00725D1600613D5600502D5A6
:10036000C8F1000000E0404629680A1D2A600968BB
:10037000220501D5087015E0220701D5088011E09B
:1003800008600FE02868011D29600068210502D57A
:1003900080F8008006E0210702D5A0F8008001E087
:1003A000C0F8008038467EE730B50B460146002095
:1003B0002022012409E021FA02F59D4205D303FA27
:1003C00002F5491B04FA02F52844151EA2F10102A8
:1003D000F1DC30BD2DE9F05F0546002092469B46DA
:1003E00088460646814640241BE02846414647464B
:1003F000224600F03CFA53465A46C01A914110D3A7
:1004000011461846224600F023FA2D1A67EB010820
:100410004F4622460120002100F01AFA17EB00098E
:100420004E41201EA4F10104DFDC484631462A4635
:100430004346BDE8F09F3A2800D2303820F0200231
:10044000412A01D3A2F13700884201D34FF0FF3097
:100450007047000002681144137801601846704725
:10046000D1600449516104491162002111611146B2
:1004700000F024BA55040008B3080008426842B1ED
:10048000016811F8013B23B1521EC0E90012184661
:1004900070470121C160881E704742685AB1C36825
:1004A000016843B983688B4205D0491E521CC0E9DC
:1004B0000012002070474FF0FF3070472DE9FE4FCB
:1004C000804681EA0300C00F0C46009021F00041F5
:1004D00023F00045B8EB0200A94105D24046214671
:1004E00090461C460B46024623F00040104347D07E
:1004F000270DC7F30A00C3F30A510290401A019076
:1005000040286BDAC3F3130040F4801B0098924636
:1005100020B10023D2EB030A63EB0B0B0198594681
:10052000C0F14002504600F093F906460D46504691
:100530005946019A00F0ABF910EB08006141002424
:1005400087EA115284EAE7731A4340D0009A62B3F3
:10055000019A012A4FEA075215DC001B61EB0201E8
:100560004FF0004202EA0752CDE90042001C41F57B
:10057000801132462B4600F048FB03B0BDE8F08FF7
:1005800040462146F9E7001B61EB0201001C41F5E2
:10059000801300185B412018A2F5001747EB0301F8
:1005A00040EAD570B6196D4111E06D084FEA360684
:1005B00045EAC0754FEA0752001B61EB0201001CBF
:1005C00041F5801149084FEA300000195141324687
:1005D0002B4603B0BDE8F04F00F008BB00980122A5
:1005E00040000023D0EB020263EBE0730098214649
:1005F0004FEAE074B8EB000061EB0401E9E783F037
:1006000000435BE781F0004158E72DE9FE4F81EAA6
:10061000030404F0004421F0004100944FF0000B6B
:1006200023F0004350EA01045ED052EA03045BD099
:10063000C3F30A54C1F30A552C44A4F2F3340194D1
:10064000A0FB0254C1F3130141F48011C3F313035F
:1006500043F4801301FB024400FB034E840A970A13
:1006600044EA815447EA8357A4FB076802958D0A40
:1006700005FB07854FEA932C04FB0C542705029DCC
:100680004FEA065847EA1637B5EB08056EEB070C3C
:10069000870E920E47EA811742EA8312A7FB0201F6
:1006A000B6EB0B0164EB00042B0D43EA0C335E1830
:1006B00044EB1C50DA465146E7FB0201C5F3130434
:1006C0004FEA0B3343EA14534FEA0432019C43EAE6
:1006D0000603A4F10C040294009CCDE900B400F0E0
:1006E00094FA03B0BDE8F08F00200146F9E72DE948
:1006F000F04D81EA030404F0004B21F0004514465C
:100700004FF0000A23F0004150EA050220D054EADD
:1007100001021DD0C5F30A570246C5F31303C1F306
:100720001300C1F30A5640F4801543F48013A7EB7D
:100730000608101BD64608F2FD3873EB050002D3FD
:1007400008F1010801E092185B41B8F1000F03DAEB
:1007500000200146BDE8F08D00204FF480110646D0
:1007600084460EE0171B73EB050705D3121B63EBE2
:10077000050306434CEA010C49084FEA3000921881
:100780005B4150EA0107EDD152EA030012D082EA40
:10079000040083EA0501084305D0101BAB4106D2D3
:1007A0000122002306E000224FF0004302E06FF038
:1007B000010253101AEB06004CEB085110EB0A0033
:1007C00041EB0B01BDE8F04D00F010BAC1F30A5245
:1007D000C1F3130140F2FF3341F480119A4202DA6F
:1007E00000200146704740F233439A42A2F233425E
:1007F00002DC524200F03BB800F02AB830B5041ECB
:1008000071F1000404DB4FF00044404264EB01014D
:10081000141E73F1000405DB1C464FF000435242E6
:1008200063EB0403994208BF904230BD064C074D6C
:1008300006E0E06840F0010394E8070098471034B0
:10084000AC42F6D3FFF7A4FCE433000804340008FC
:10085000202A04DB203A00FA02F100207047914080
:10086000C2F1200320FA03F3194390407047202A75
:1008700004DB203A21FA02F00021704721FA02F34A
:10088000D040C2F120029140084319467047202A07
:1008900006DBCB17203A41FA02F043EAE07306E0A8
:1008A00041FA02F3D040C2F12002914008431946B8
:1008B0007047C0B24FF4F05100F0F6B92DE9F34F94
:1008C0008BB04FF0000801F10C000C464FF0010B0B
:1008D00046460DF1080A019062690121019890478E
:1008E000051E2DD0252D2CD0216A8847C0B1626904
:1008F000012101989047216A88470028F7D1411EBD
:1009000062690198904700E0761CA1690B988847BE
:10091000216A88470028F7D1E1690B988847DBE70F
:10092000A1690B9888470746A84201D1761CD3E7F6
:10093000E1690B9888477F1C02D1B8F1000F6FD096
:1009400047E1002762693D463946019890472A28C9
:1009500004D162690121019890470125DFF888924E
:100960006269012101989047A0F130010A290AD259
:100970004F45E5DC07EB870100EB4107303FDFD453
:1009800045F01005ECE7E90601D46FF000476C284C
:100990000AD04C2814D0682815D06A280DD07428A5
:1009A0001CD07A281AD01DE0626901210198904775
:1009B0006C2802D045F0040514E045F002050DE076
:1009C00045F020050AE062690121019890476828F6
:1009D00002D045F0080505E045F400656269012193
:1009E00001989047C4E9015765283DD019DC582883
:1009F0007AD00CDC452837D004DC252826D04128C5
:100A000031D131E046282FD047282CD12CE05B286B
:100A100077D0612828D063287CD0642823D15AE07D
:100A2000D1E06F2848D008DC66281DD067281BD08D
:100A3000692821D06E2816D127E0702845D0732868
:100A400068D0752847D078280DD14DE0A1690B9862
:100A50008847054625283FF469AFE1690B98884728
:100A60006D1C3FF46AAFB4E023466A466FF00100A4
:100A70000B99AFF300809FE045F040006060A8074D
:100A800023464FF0000236D43EE0E8077FF447AF3C
:100A90002068011D21600068290501D506701BE74B
:100AA000290701D5068017E7A90703D5F117C0E983
:100AB000006111E706600FE745F040006060A8079D
:100AC00023464FF0080216D41EE040F60E0125EA38
:100AD0000100606016E045F040006060A807234612
:100AE0004FF00A0207D40FE045F040006060A8070D
:100AF00008D5234610226FF001000B99AFF3008058
:100B00005AE007E0234610226FF001000B99FFF72F
:100B1000A5FB51E04FF000094F464B46632802D039
:100B20005B2807D041E02079C00601D40120A060F5
:100B300001273AE062690121019890475E2805D1BA
:100B40004FF001096269494601989047216939B916
:100B500000210A46534643F82120491C0829FADBA4
:100B6000B0B3216969B9C11700EBD16253110AEB27
:100B7000830122F01F02821A01200B689040034378
:100B80000B6062690121019890475D28E8D1B9F1B5
:100B9000000F09D00020514651F82020D24341F8DF
:100BA0002020401C0828F7DB02AB224600976FF09C
:100BB00001000B99AFF3008000280CDA401C08D12B
:100BC000BBF1000F05D04FF0FF300DB0BDE8F08F46
:100BD000FFE74046F9E7E90701D108F101080644BB
:100BE0004FF0000B78E60000CCCCCC0C10B5141EF6
:100BF00073F1000408DA401C41F1000192185B41D6
:100C00001A4301D120F0010010BD2DE9F04D9246AC
:100C10009B4611B1B1FA81F202E0B0FA80F22032C3
:100C20009046FFF715FE04460F4640EA0A0041EAE7
:100C30000B0153465A46084313D0114653EA0100AC
:100C400019D0C8F140025046FFF711FE05460E4686
:100C5000504659464246FFF7FBFD084305D00120A8
:100C600004E020463946BDE8F08D0020054346EA01
:100C7000E0762C4337430A986305E40AA0EB0800AA
:100C80000022FD0A44EA47540A3002D500200146FA
:100C9000E9E7010510196941DDE9084500196941D5
:100CA000BDE8F04DA2E700007F2801D9002208E04E
:100CB000064A02EB5002C007127800D1120902F076
:100CC0000F02012090400840704700001C330008CC
:100CD00010B500F095FD10BD2DE9F04106460F4618
:100CE000154600F0C7FFA02000F074FF642000F05C
:100CF000F9FFF0B200F06EFF642000F0F3FF00F0A7
:100D0000B9FFA12000F066FF642000F0EBFF002493
:100D10000CE000F017FF3855681EA04202D100F029
:100D20008DFF01E000F034FF601C84B2AC42F0DBC8
:100D300000F0BEFF0020BDE8F081000010B550219A
:100D40000448FFF75CFA502202490020FFF7C4FF75
:100D500010BD00001C00002070B506460D4600F0D6
:100D600089FFA02000F036FF642000F0BBFF08B12F
:100D7000012070BD304600F02DFF642000F0B2FF6E
:100D800008B10220F5E700240AE0285D00F022FF08
:100D9000642000F0A7FF08B10320EAE7601CC4B29A
:100DA000082CF2DB00F084FF0020E2E770B5084D6C
:100DB00000240AE005EBC401E206100EFFF7CCFFA9
:100DC0000A2002F04FF9601CC4B20A2CF2D370BDA5
:100DD0001C00002010B5142000F050F8E0B911A05C
:100DE00001F0F4F915480068154988420DD115A0A5
:100DF00001F0ECF91648006840F001001449086061
:100E000000201449C1F800040BE013A001F0DEF942
:100E1000144800F095FF04E013A001F0D7F900F0AA
:100E200071FB10BDE4B88DE8BF9BE585A5426F6FEF
:100E3000744C6F616465720D0A0000001C00002094
:100E4000443322114F5441E4BA8BE4BBB60D0A007F
:100E5000000000206C000020E8B7B3E8BDAC4150B2
:100E6000500D0A0000000108E8BF9BE585A5426F10
:100E70006F744C6F616465720D0A000070B50446B2
:100E80000A2094FBF0F529460BA001F09FF908E039
:100E9000642002F0E7F812480078772801D1012099
:100EA00070BD201EA4F10101CCB2F1D10DA001F062
:100EB0008DF90020F4E70000E59CA82564E7A792DF
:100EC000E58685E8BE93E585A5772CE8BF9BE5859B
:100ED000A5426F6F744C6F616465720D0A0000006B
:100EE0007C040020E4B88DE8BF9BE585A5426F6FC8
:100EF000744C6F616465720D0A00000070B586B0B5
:100F000004460D46F648006800286DD12078312847
:100F100009D1012D07D10821042000F08BFCF1A09C
:100F200001F054F960E02078322815D1012D13D159
:100F3000F04801F04BF90821042000F07BFCE84860
:100F4000006840F00600E64908600020EA49C1F860
:100F50000404C1F8080447E0207833280BD1012DA0
:100F600009D1E64801F032F9DD48006840F0080098
:100F7000DB49086038E0207834280CD1012D0AD1F3
:100F8000D748006840F01000D5490860DC49DDA072
:100F900001F01CF928E0207835280BD1012D09D16A
:100FA000CF48006840F02000CD490860DBA001F088
:100FB0000DF919E02078362808D1012D06D1C8484E
:100FC000006840F04000C64908600DE020783728EE
:100FD0000AD1012D08D1DCA001F0F8F84FF47A70A5
:100FE00002F040F800F014FFBD48007800F0040063
:100FF000002872D02078012846D1852D44D1B848E8
:10100000006820F00200B64908608021E01C01F071
:101010009BFBB949C1F80C0494F8841094F8830040
:1010200001EB0020B449D1F80C14884229D1B24810
:10103000D0F80804401CB049C1F8080491F808141D
:10104000491E01F00701AC4A02EBC1108022E11CED
:10105000FFF7BCF8A84890F8080400F0070060B952
:10106000A549D1F808140122C2EBD101BA4A02EB1A
:1010700081205214A04900F0D8FCB8A001F0A6F8D5
:1010800002E0B7A001F0A2F82078042871D1012D68
:10109000FCD1B2A001F09AF8974890F8080400F04B
:1010A000070070B1944991F8081449078A0D9249D4
:1010B000D1F80814C908A84B03EB81208E4900F031
:1010C000B4FC8748006820F00400854908604FF4AC
:1010D0007A7001F0C7FF00F09BFE8148007800F0B5
:1010E000080000284AD0002005901C2D42D120780D
:1010F00056283AD16078452837D1A078522834D183
:10110000E078532831D1207949282ED160794F28B1
:101110002BD1A0794E2828D1E0792D2825D105A8FA
:1011200005A905AA05ABCDE903108EA1CDE90132D1
:1011300000902046FFF776F8072812D11C2221469E
:101140006F48FFF743F8FFF731FE8EA001F03EF83D
:101150006348006820F008006149086000F0D2F997
:101160000BE08CA001F032F807E08EA001F02EF821
:1011700003E0B3E090A001F029F89FE1584800781F
:1011800000F0200000287DD020783128F5DB207881
:101190003928F2DC012DF0D1207830385649C1F8D9
:1011A0000004207801285BD1852D59D14C48006876
:1011B00020F002004A4908608021E01C01F0C4FAD6
:1011C0004D49C1F80C0494F8841094F8830001EBA5
:1011D00000204949D1F80C14884241D14648D0F842
:1011E0000804401C4449C1F808040846D0F800141B
:1011F00043482C3850F8210080303F49D1F8002472
:101200003F492C3941F822003B4991F80814491E06
:1012100001F00101384A02EBC1108022E11CFEF707
:10122000D5FF354890F8080400F00100A8B932490C
:1012300091F8000401F0E6F92F48B0F8000400042A
:101240002D4AD2F80824120200EB52012A4801F07C
:1012500003FA42A000F0BAFF02E041A000F0B6FF9E
:101260002078042889D1012D87D13CA000F0AEFF61
:10127000214890F8080400F0010070B11E48B0F851
:10128000000400E015E000041B4AD2F80824120212
:1012900000EB5201184801F0DFF91148006820F016
:1012A00020000F49086048A000F090FF00F02AF9E4
:1012B00004E10B48007800F0400000280ED046A062
:1012C00000F084FF2078312809DB2078392806DCFB
:1012D000012D04D12078A0F1300197E0EEE0ECE0A0
:1012E00000000020E693A6E999A4E5AE8CE688907C
:1012F0000D0A0000A03300086C0000205C330008D9
:101300004C000020E5BD93E5898DE78988E69CAC1B
:10131000E58FB7E4B8BA3A25730D0A00E8AFB7E82D
:10132000BE93E585A5E8A681E4B88BE8BDBDE58858
:10133000B0E79A84464C415348E59D97E58FB73A0C
:10134000317E390D0A000000E58DB3E5B086E987EE
:101350008DE590AF0D0A00000000010806000000B6
:101360001500000056455253494F4E2D5625642E08
:1013700025642D323025642D25642D25642D2564AA
:101380003A256400E8AEBEE7BDAEE68890E58A9FE8
:101390000D0A0000E6A0BCE5BC8FE99499E8AFAF68
:1013A0000D0A0000E9A696E5AD97E6AF8DE99499A0
:1013B000E8AFAF0D0A000000E995BFE5BAA6E994D1
:1013C00099E8AFAF0D0A0000E4B88BE8BDBDE5AE0B
:1013D0008CE688900D0A0000E8AFB7E8BE93E5857B
:1013E000A5E59D97E58FB728317E3929EFBC8CE4C0
:1013F000BBA5E4BDBFE794A8E5BD93E4B8ADE79A0B
:1014000084E7A88BE5BA8F0D0A0000002CA000F03D
:10141000DDFE002612E03349B1F80014090401EBA7
:1014200086204FF480622F4901F046F92E4901EBE6
:1014300086204A142B4900F0F8FA761C2948D0F887
:101440000004401C294951F82000B6EB902FE2D34C
:101450002448D0F80004401C31F82000C0F30900F3
:1014600000B32049B1F80014090401EB86201D499E
:10147000D1F80014491C1D4B33F82110C1F30902A7
:10148000184901F019F91749D1F80014491C174BF4
:1014900033F82110C1F30902134901EB86201149E9
:1014A00000F0C3FA12A000F091FE1548006820F089
:1014B00040001349086000F025F800BF06B070BD79
:1014C000E58DB3E5B086E4BDBFE794A8E59D97E55B
:1014D0008FB7E4B8BA2564E79A84E7A88BE5BA8F9A
:1014E0000D0A00006C000020000001082000002010
:1014F000E58699E585A5E5AE8CE688900D0A0000A5
:101500000000002010B50CA000F060FE0FA000F05D
:101510005DFE12A000F05AFE18A000F057FE1DA0BC
:1015200000F054FE21A000F051FE28A000F04EFE75
:101530002EA000F04BFE10BD426F6F744C6F6164C3
:101540006572E4BFA1E681AF0D0A00005B315DE684
:1015500093A6E999A441E58CBA0D0A005B325DE4DB
:10156000B8B2E58FA3494150E4B88BE8BDBD41E571
:101570008CBAE7A88BE5BA8F0D0A00005B335DE8F3
:10158000AEBEE7BDAE4F5441E78988E69CACE58F1F
:10159000B70D0A005B345DE69FA5E8AFA24F54414A
:1015A000E78988E69CACE58FB70D0A005B355DE501
:1015B0009091E5A496E983A8466C617368E4B88BC2
:1015C000E8BDBDE7A88BE5BA8F0D0A005B365DE488
:1015D000BDBFE794A8E5A496E983A8466C6173684B
:1015E000E58685E7A88BE5BA8F0D0A005B375DE9D4
:1015F000878DE590AF0D0A0000BFFEE721B10268BC
:1016000042F00102026003E0026822F0010202607F
:1016100070470000016821F00101016000210160B4
:1016200041608160C1600161212141614A49884274
:1016300004D13D21484A103A91608CE04649183166
:10164000884205D14FF47461434A103A916082E0B8
:1016500041493031884205D14FF474113E4A103A65
:10166000916078E03C494831884205D14FF074617F
:10167000394A103A91606EE037496031884204D1AE
:101680003649354A103AD16065E0334978318842AD
:1016900004D13349304A103AD1605CE02E49903190
:1016A000884204D12F492C4A103AD16053E02A498C
:1016B000A831884205D14FF03D51274A103AD160F8
:1016C00049E02949884204D13D21274A083A11605E
:1016D00041E025491831884205D14FF47461224A0E
:1016E000083A116037E020493031884205D14FF483
:1016F00074111D4A083A11602DE01B494831884297
:1017000005D14FF07461184A083A116023E0164978
:101710006031884204D11149134A121F11601AE046
:1017200011497831884204D10D490F4A121F1160C6
:1017300011E00D499031884204D10A490A4A121F2A
:10174000116008E00849A831884204D14FF03D51AA
:10175000054A121F11607047106002403D000020D2
:10176000400F002000003D20106402400146486800
:1017700080B2704710B500220268134B1A40CC6843
:101780000B6823434C6923438C692343CC6923436F
:101790000C6A23434C6A23438C6A23434C6B2343D8
:1017A0008C6B23431A430260426922F00702D1E99D
:1017B0000B3423431A4342610B6943604B688360D7
:1017C0008B68C36010BD00003F801CF00AB101614E
:1017D00000E0C160704741607047002101604160D6
:1017E0008160C160016141618161C16101624162E9
:1017F0008162C16201634163816370477047000089
:101800001CB50121022000F019FB01208DF8040015
:101810008DF8060000208DF8070003208DF80500E4
:10182000000200906946024800F012F91CBD000059
:101830000004024070B504460D460C2C1FD2DFE8B0
:1018400004F006080A0C0E10121416181A1C0024B4
:1018500016E0082414E0102412E0182410E02024DC
:101860000EE028240CE030240AE0382408E040246C
:1018700006E0482404E0502402E0582400E000BFC1
:1018800000BF00F0AFF8002608E00221204600F07B
:101890000BF804F10800C4B2701CC6B2AE42F4DB0F
:1018A00000F070F870BD000070B504460A460026CE
:1018B000092502B909E0012A01D1160205E0022A30
:1018C00001D1160201E04FF4407600F09DF8054684
:1018D000092D28D11548006820F44070134908608C
:1018E00008460068304308600846006820F0F800A9
:1018F00008600846006844F0020108430B4908608C
:101900000846006840F48030086000F07DF8054625
:101910000648006820F00200044908600846006894
:1019200020F0F8000860284670BD0000103C02401E
:1019300009201349096801F48031B1F5803F01D1D4
:1019400001201CE00E49096801F0100109B10620D0
:1019500015E00B49096801F4807109B102200EE01D
:101960000749096801F0E00109B1072007E00449CF
:10197000096801F0020109B1082000E00920704760
:101980000C3C02400348006840F0004001490860F8
:1019900070470000103C024030B502460C46092555
:1019A00000F032F80546092D17D10D48006820F4E3
:1019B00040700B49086008460068086008460068E7
:1019C00040F001000860147000F01EF8054604485D
:1019D000006820F0010002490860284630BD000080
:1019E000103C02400548006800F0004028B104485F
:1019F00002490C390860034808607047103C0240F7
:101A000023016745AB89EFCD08B509200090FFF7AA
:101A10008FFF009002E0FFF78BFF00909DF8000021
:101A20000128F8D09DF8000008BD70B506460C46A8
:101A30001546FFF7D7FF06E021783046FFF7ACFFE9
:101A4000761C641C6D1E002DF6D1FFF79BFF70BD48
:101A5000F0B50A4600210023002400BF3DE0012527
:101A600005FA01F3156805EA03049C4234D10568C0
:101A70004F000326BE40B543056015794E00B540C2
:101A80000668354305601579012D02D01579022DC0
:101A900016D185684F000326BE40B5438560557951
:101AA0004E00B540866835438560456801268E4006
:101AB000B5434560456896798E40B6B2354345607A
:101AC000C5684F000326BE40B543C560D5794E00BA
:101AD000B540C6683543C560491C1029BFD3F0BD69
:101AE000F0B5002300244D07ED0E02FA05F3CE10E9
:101AF00000F1200555F826504E07F70E0F26BE4080
:101B0000B543CF1000F1200646F82750CE1000F163
:101B1000200555F8265045EA0304CE1000F12005B3
:101B200045F82640F0BD0246002013690B400BB17A
:101B3000012000E000207047418370470183704717
:101B400000BFFEE770B5002500241AE04FF4807155
:101B50000E48FFF7F3FF022001F0C6FA4FF40071C0
:101B60000A48FFF7E0FF10B18020204105434FF401
:101B700080710648FFF7E0FF022001F0B5FA601C13
:101B8000C4B2082CE2DB284670BD0000000402400D
:101B900010B54FF400710E48FFF7CEFF022001F0A0
:101BA000A3FA4FF480710A48FFF7C8FF022001F042
:101BB0009BFA4FF480710648FFF7BEFF022001F048
:101BC00093FA4FF400710248FFF7B8FF10BD000010
:101BD0000004024070B505464FF480711648FFF7C7
:101BE000ABFF002420E080202041284028B14FF4A2
:101BF00000711148FFF7A2FF04E04FF400710E4896
:101C0000FFF79AFF022001F06FFA4FF480710A4843
:101C1000FFF794FF022001F067FA4FF48071064845
:101C2000FFF78AFF601CC4B2082CDCDB4FF40071A4
:101C30000148FFF783FF70BD0004024010B54FF468
:101C400000710B48FFF77AFF022001F04DFA4FF4C4
:101C500080710748FFF772FF022001F045FA4FF448
:101C600080710348FFF768FF022001F03DFA10BDC4
:101C70000004024010B54FF400710C48FFF75EFFFE
:101C80004FF480710948FFF759FF022001F02CFA48
:101C90004FF400710548FFF74FFF022001F024FACE
:101CA0004FF480710148FFF747FF10BD0004024068
:101CB00010B54FF400710A48FFF73EFF4FF48071F2
:101CC0000748FFF73BFF022001F00EFA4FF40071C6
:101CD0000348FFF733FF022001F006FA10BD0000B1
:101CE0000004024010B504464FF400711348FFF79A
:101CF00025FF022001F0F8F94FF480710F48FFF73B
:101D00001DFF022001F0F0F94FF400710B48FFF7BE
:101D10000AFF48B14FF480710848FFF70DFF022019
:101D200001F0E2F9012010BD4FF480710348FFF784
:101D300003FF022001F0D8F90020F4E7000402407C
:101D400010B504462068B0F1005F0DD30849206843
:101D5000884209D82068FEF723FA064960680860BF
:101D600008460068804702E003A000F02FFA10BD8B
:101D7000FFFF012018000020E8B7B3E8BDAC41E543
:101D80008886E58CBAE5A4B1E8B4A50D0A00000088
:101D900000BFFEE77047000070B5002100230F224E
:101DA000C4781CB3174C246804F4E064C4F5E06400
:101DB000C4F30721C1F10404E3B20A4144789C4012
:101DC000E1B28478144021430C07210E0E4C0578B3
:101DD0006155047804F01F050124AC4005786D11AD
:101DE000AD0005F1E025C5F8004109E0047804F0F4
:101DF0001F050124AC40054D0678761145F82640B4
:101E000070BD00000CED00E000E400E080E100E0C7
:101E1000BFF34F8F0648006800F4E06005490843AF
:101E2000001D03490860BFF34F8F00BFFEE70000AD
:101E30000CED00E00000FA057047000029B1064AE9
:101E400012680243044B1A6004E0034A126882439A
:101E5000014B1A60704700003038024029B1064A31
:101E600012680243044B1A6004E0034A126882437A
:101E7000014B1A607047000044380240F0B5002161
:101E800000220024022500260223324F3F6807F07B
:101E90000C0121B1042905D0082937D105E02E4FC6
:101EA000076036E02D4F076033E02A4F3F1F3F6841
:101EB000C7F38056274F3F1F3F6807F03F036EB1BF
:101EC000264FB7FBF3F7DFF88CC0ACF1040CDCF85D
:101ED00000C0CCF3881C07FB0CF40CE01E4FB7FBD2
:101EE000F3F7DFF870C0ACF1040CDCF800C0CCF301
:101EF000881C07FB0CF4174F3F1F3F68C7F30147CF
:101F00007F1C7D00B4FBF5F7076002E0124F07600D
:101F100000BF00BF0F4F3F6807F0F0010909104FE5
:101F20007A5C0768D74047600A4F3F6807F4E05182
:101F3000890A0B4F7A5C4768D7408760054F3F6836
:101F400007F46041490B064F7A5C4768D740C76089
:101F5000F0BD0000083802400024F40000127A00AE
:101F60000400002070B505460E46002405E0FF2061
:101F700000F006F82855601C84B2B442F7DB70BD4F
:101F800010B5044600BF02210A4800F022F80028DC
:101F9000F9D02146074800F028F800BF0121054884
:101FA00000F017F80028F9D0024800F01BF8C0B282
:101FB00010BD00000030014070B505460E460024FB
:101FC00004E0285DFFF7DCFF601C84B2B442F8DB5C
:101FD00070BD0246002013890B400BB1012000E0C8
:101FE000002070470146888970478181704770479B
:101FF0000CB50020019000903448006840F4803017
:102000003249086000BF3148006800F40030009099
:102010000198401C0190009818B90198B0F5A04FA4
:10202000F1D12A48006800F4003010B1012000907E
:1020300001E0002000900098012846D1234840305C
:10204000006840F080502149403108602048006815
:1020500040F440401E4908601C48083000681B4995
:10206000083108600846006840F4004008600846EF
:10207000006840F4A05008601648091F0860081F57
:10208000006840F08070091F086000BF0F480068BA
:1020900000F000700028F9D040F205700E49086089
:1020A0000A480830006820F0030008490831086039
:1020B0000846006840F00200086000BF034808308E
:1020C000006800F00C000828F8D10CBD0038024070
:1020D0000070004008544007003C0240042808D12A
:1020E0004FF0E021096941F004014FF0E022116155
:1020F00007E04FF0E021096921F004014FF0E022F0
:10210000116170477047000010B504466FF004007D
:10211000FFF7E4FFE11704EB5171C1F3C701074A70
:1021200011701046007800EB4001C1EBC0104FF673
:10213000FF7101EAC0000249088010BD14000020B0
:102140001600002010B51548006840F470001349CF
:1021500008601348006840F0010011490860002041
:102160000F49083108600E4800680E4908400C49C4
:1021700008600D48091D0860081F006820F48020D1
:10218000091F0860002006490C310860FFF730FF86
:102190004FF0006001498039086010BD88ED00E013
:1021A00000380240FFFFF6FE103000240548011FF2
:1021B000486588654830C865002008800248496D38
:1021C00008607047801400207C0400200FB438B5EC
:1021D00005A800901248009A049900F0D7FA002050
:1021E000009000240DE000BF80210E4800F0E7F8C9
:1021F0000028F9D00A48015D0A4800F082F9601C05
:1022000084B20748FEF706F8A042ECD800BF802150
:10221000044800F0D4F80028F9D038BC5DF814FB6D
:102220007C0C00200010014000B58FB00121880512
:10223000FFF704FE1748FFF7EDF96846FFF7CDFA00
:1022400040F201100490C0060090002003900B9013
:10225000114802904FF480600690002008904FF4DF
:10226000807009900D4801900020079005904FF470
:1022700040300A9069460748FFF77CFA012105487B
:10228000FFF7BCF9012240210448001F00F08EF83E
:102290000FB000BD886402407C040020041001409F
:1022A00010B510212B4800F08AF8002851D01021D9
:1022B000284800F057F8274800F01EF92648FFF795
:1022C00055FA40F20111081A2449098808442349A3
:1022D000088008460088401E214908441F49496D6E
:1022E00048601E48406D08301C4948650846406DEE
:1022F000C96D884203D11948001D011F4865174860
:102300000088C0F50060B0F5807F07DD13480088C5
:10231000134908441149496D086006E010480F4907
:10232000496D086000200D49088000210A48FFF728
:1023300065F940F201110848FFF74DFA0748406D72
:10234000002201680448FFF741FA01210248FFF723
:1023500055F910BD00100140886402407C14002033
:102360007C04002001F40072B2F5007F00D100BFB0
:10237000CA430280704710B50022002340F66A1459
:10238000A14200D100BF0A1201249440A3B2DC4351
:10239000048010BD21B1828942F40052828104E0A0
:1023A00082894DF6FF731A40828170471AB1838A81
:1023B0000B43838202E0838A8B4383827047024609
:1023C0000020B1F5007F00D100BF13880B400BB196
:1023D000012000E000207047F0B5034600240026ED
:1023E0000025002040F66A17B94200D100BF184608
:1023F000C1F3421401F01F06012707FA06F5012C6C
:1024000001D10C3004E0022C01D1103000E0143076
:102410001AB107682F43076002E00768AF430760FF
:10242000F0BD00002DE9FF4705460E460024A146F9
:1024300000BFA046B08900B100BF2C8A24F44054EC
:10244000F08804432C82AC8941F20C608443B0884C
:1024500031890843718908430443AC81AC8A24F470
:102460004074B0890443AC826846FFF707FD2048FA
:10247000854202D01F48854202D1DDF80C9001E070
:10248000DDF80890A88900F4004040B109EBC900CC
:1024900000EB091031684900B0FBF1F707E009EBE8
:1024A000C90000EB091031688900B0FBF1F7642026
:1024B000B7FBF0F004012009642101FB1078A88922
:1024C00000F4004040B1322000EBC800B0FBF1F056
:1024D00000F00700044308E0322000EB08106421FC
:1024E000B0FBF1F000F00F0004432C81BDE8FF8742
:1024F000001001400014014001468888C0F3080024
:102500007047C1F308028280704700BFFEE70000F9
:1025100010B588B0044601211020FFF79FFC01216F
:102520000846FFF78BFC4FF4C060069002208DF840
:102530001C0000208DF81E0003208DF81D000120D6
:102540008DF81F0006A92348FFF782FA0722092108
:102550002048FFF7C5FA07220A211E48FFF7C0FAF4
:1025600002940020ADF80C00ADF80E00ADF810009C
:102570000C20ADF812000020ADF8140002A9164896
:10258000FFF750FF01211448FFF704FF012240F23A
:1025900024411148FFF720FF25208DF8040000207A
:1025A0008DF805008DF8060001208DF8070001A8C0
:1025B000FFF7F2FBFFF738FEFFF7F8FD40F224418A
:1025C0000548FFF7D8FE10210348FFF7CBFE08B0FF
:1025D00010BD0000000002400010014010B500F0E6
:1025E00099F84FF480410648FFF7A6FA0620FFF756
:1025F000C7FC4FF480410248FFF7A0FA10BD00006D
:102600000004024038B5044600200090D8208DF820
:1026100000006004000C8DF801006004000A8DF8D1
:1026200002006004C0B28DF8030000F073F8FFF7F9
:10263000D5FF4FF480410748FFF77EFA0421684632
:10264000FFF7BAFC4FF480410248FFF777FA00F039
:1026500061F838BD0004024038B505460C4600203C
:10266000009002208DF800006004000C8DF801003D
:102670006004000A8DF802006004C0B28DF8030007
:1026800000F048F8FFF7AAFF4FF480410948FFF730
:1026900053FA04216846FFF78FFC4FF480712846F7
:1026A000FFF78AFC4FF480410248FFF747FA00F039
:1026B00031F838BD00040240F8B504460D46164610
:1026C0000020009003208DF80000200C8DF8010000
:1026D000200A8DF80200E0B28DF8030000F01AF82D
:1026E000FFF77CFF4FF480410948FFF725FA0421EA
:1026F0006846FFF761FCB1B22846FFF733FC4FF4A0
:1027000080410348FFF71AFA00F004F8F8BD000012
:102710000004024010B500BF4FF480410948FFF7A4
:102720000BFA0520FFF72CFCFF20FFF729FC0446DD
:102730004FF480410348FFF701FA04F0010000283C
:10274000EAD110BD0004024030B50246002041F23B
:10275000210414E0137880EA032000230CE000F445
:1027600000451DB184EA4005A8B203E04FF6FF75AD
:1027700005EA40005D1CEBB2082BF0DB521C0B1E7F
:10278000A1F10105E9B2E5D130BD000037B514462D
:102790000846064B6A46214600F0DCF804466946C6
:1027A000002000F05AFC20463EBD00005B300008CF
:1027B00002E008C8121F08C1002AFAD1704770470A
:1027C000002001E001C1121F002AFBD17047000068
:1027D0002DE9FF5F82B00021DDE90430020DDDF854
:1027E00040B0034318D044F61050A2F2FF324243E7
:1027F0001514119801281FD0A5EB0B00401C5FEAAF
:10280000000A4FF000064E4FDFF83891B0465046B0
:1028100015D5CAF1000413E0119801244AA3012838
:1028200001D16FEA0B010298119AC0E90031C0E9A9
:10283000024206B0BDE8F09FCBF10000DFE704469E
:102840000021404A491842EB0450CDE9001012E043
:10285000E00707D032463B4640464946FDF7D5FEE5
:102860008046894632463B4610461946FDF7CDFE66
:1028700006460F466410002CEAD1DDE90401DDE9CB
:102880000023BAF1000F06DAFDF7BFFE42464B46C1
:10289000FDF7BBFE05E0FDF72AFF42464B46FDF77C
:1028A00026FF04460E460022284BFDF7A7FF03D85B
:1028B0004FF0FF30014607E00022254B204631460D
:1028C000FDF7FCFDFDF782FF102409E0002C0ADB78
:1028D0000A220023FDF77EFD039B30321A55641E49
:1028E00050EA0102F2D1641C039AC4F111031444AA
:1028F000119A012A03D0012208430DD10AE00843AE
:1029000004D000204FF0110B119072E7A3EB0B05E0
:102910006D1E0DE05B4504DD4FF0000205F1010581
:1029200004E003DA4FF00002A5F10105002AECD023
:1029300002981199C0E90231C0E9004579E7000029
:10294000000014400000F03F300000000000F043A1
:102950000000E03F2DE9FF4F95B09A4688460646B5
:102960000025EEE1252877D100242746F94A0121E8
:10297000039400E0044316F8013F203B01FA03F002
:102980001042F7D130782A2811D06FF02F03307819
:10299000A0F13002092A16D8039A44F0020402EB8F
:1029A000820203EB42021044761C0390EFE758F8D2
:1029B000042B0392002A03DA504244F4005403909B
:1029C00044F00204761C30782E2816D116F8010F38
:1029D00044F004042A280DD06FF02F023078A0F1C3
:1029E0003003092B09D807EB870302EB4303C71811
:1029F000761CF3E758F8047B761C30786C280FD0EF
:102A000006DC4C2817D068280DD06A2814D104E0C1
:102A1000742810D07A280FD10DE044F400140AE095
:102A200044F4801401E044F440147278824202D1EC
:102A300004F58014761C761C307866280BD013DCE5
:102A4000582877D009DC002875D04528F6D04628CC
:102A5000F4D047281AD193E118E0632835D06428D0
:102A600079D0652812D18BE1702873D008DC6728F3
:102A7000F1D069286FD06E280DD06F2806D1ACE058
:102A800073282CD0752874D0782853D052461799C3
:102A900090476D1C54E1C4F30250022809D003286A
:102AA0000DD0D8F8001004280DD00D6008F10408EE
:102AB00046E1D8F80010EA17C1E90052F6E7D8F865
:102AC00000100D80F2E70D70F0E718F8041B8DF888
:102AD000001000208DF80100EB46012003E058F8BB
:102AE00004BB4FF0FF3061074FF0000102D40DE04E
:102AF00009F101018946B9420FDA8145F8DB1BF87B
:102B000009100029F4D108E009F101018946814248
:102B1000FADB1BF809100029F6D103985346A0EB05
:102B2000090721463846179A00F080FA284400EB3E
:102B3000090507E044E008E10DE01BF8010B5246EF
:102B400017999047B9F10109F7D253462146384603
:102B5000179AF2E039E00A21C4F302524FF0000B59
:102B60000091022A06D058F8040BC117032A09D095
:102B70000AE023E008F1070020F00702F2E8020172
:102B8000904605E000B2C117042A01D140B2C11736
:102B9000002906DA0A460021404261EB02012D229B
:102BA00002E0220504D52B228DF80420012203E047
:102BB000E20701D02022F7E7914657E00A2100E022
:102BC00010214FF0000B00910BE010214FF0000B93
:102BD00044F004040827009103E008204FF0000BA4
:102BE0000090C4F30252022A05D058F8040B0021C9
:102BF000032A08D008E008F1070020F00702F2E8F5
:102C00000201904603E080B2042A00D1C0B24FF026
:102C1000000922072AD53278702A07D0DDF800C0D3
:102C20008CF0100C5CEA0B0C05D00EE040228DF805
:102C30000420012208E050EA010306D030238DF879
:102C400004308DF8052002229146009B83F0080392
:102C500053EA0B030AD150EA010201D1620705D5FC
:102C600030228DF804204FF001097F1E3278582A57
:102C700004D039A20C920CAA02920BE03BA2F9E715
:102C80005B46009AFDF7A6FB0C9B9B5C029A521ECA
:102C90000292137050EA0102F2D1029804A9081AB4
:102CA00000F1200B600702D524F4803400E00127F6
:102CB0005F4502DDA7EB0B0000E0002000EB0B01FD
:102CC000009003984944401A0390E00306D4534609
:102CD0002146179A039800F0A9F90544002706E059
:102CE00001A85246C05D179990476D1C7F1C4F4547
:102CF000F6DBE0030CD553462146179A039800F003
:102D000095F9054404E030205246179990476D1C10
:102D10000099481E00900029F5DC08E0029802990D
:102D200052460078491C0291179990476D1CBBF1DF
:102D30000001ABF1010BF1DC5BE100F065F905444A
:102D4000761C307800287FF40DAE19B02846BDE817
:102D5000F08F000009280100303132333435363726
:102D600038396162636465660000000030313233D7
:102D70003435363738394142434445460000000077
:102D8000600700D4062708F1070020F00700F0E8EC
:102D90000223804603F0004C5FEA0C0001D097A0AC
:102DA00009E0200501D596A005E0E00701D095A037
:102DB00001E0AFF24C001390307823F00043652817
:102DC0000CD006DC452809D046281DD047287FD1E5
:102DD0003BE0662818D067287AD136E00021112F11
:102DE00001DB112000E0781CCDE9000104A90CA84A
:102DF000FFF7EEFCDDE90D010C9A4FF0000B07F137
:102E00000109109200914EE04FF000400097CDE98B
:102E1000011004A90CA8FFF7DBFCDDE90D020C9BF7
:102E20000F994FF0000B91461093009211B9791C45
:102E300000EB0109B7EB090003D4C0F1FF3B07F138
:102E40000109A9EB0700019042E0012F00DA0127F8
:102E50000021112F01DD112000E03846CDE90001ED
:102E600004A90CA8FFF7B4FCDDE90D010C9A009150
:102E70004FF0000BB946109221070FD4009A4A4533
:102E800003DA914601E0A9F10109B9F1010F05DD6D
:102E9000109AA9F10101515C3029F4D0B84202DA4C
:102EA00010F1040F03DA0121CDE9011010E0002830
:102EB00003DC8344A9EB000102E0411C494500DD2D
:102EC0008946A0EB0B00401C01904FF0004002909F
:102ED000200705D40198484502DB4FF0FF300190F0
:102EE00000208DF84B0002980DF14B07B0F1004F18
:102EF00025D002200C902B200D90029800280CDA8F
:102F0000404202902D200D9007E00A210298FDF723
:102F10004BFA3031029007F8011D0C99481E0C90B5
:102F20000029F2DC02980028EFD1791E0D98087074
:102F3000307800F0200040F0450007F8020D11A89D
:102F4000C01BC01D02901398007800B1012000EB57
:102F50000901019801EBE071029801440398401ABD
:102F6000401E0390E00306D453462146179A039867
:102F700000F05CF805441398007818B15246179990
:102F800090476D1CE00323D553462146179A0398BA
:102F900000F04CF805441BE0BBF1000F07DB009884
:102FA000584504DD1098179910F80B0001E01799A7
:102FB00030205246904701980BF1010B401E05F15D
:102FC0000105019004D12E205246179990476D1C9F
:102FD000B9F10001A9F10109DEDC05E017F8010BE8
:102FE0005246179990476D1C0299481E029000297D
:102FF000F4DC53462146179A03989EE62D00000004
:103000002B000000200000002DE9F04104460025BF
:103010001E461746880404D405E039462020B047F0
:103020006D1C641EF9D52846BDE8F0812DE9F041FC
:10303000044600251E469046C80301D5302700E00F
:103040002027880404D505E041463846B0476D1C6A
:10305000641EF9D52846BDE8F0810A68531C0B6050
:103060001070704770B504464FF4077094FBF0F091
:10307000C6B24FF4077094FBF0F100FB114085B22B
:1030800005E04FF4077000F009F8701EC6B2002E7C
:10309000F7D115B1284600F001F870BD0146114A7C
:1030A00012884A434FF0E0235A6100229A611A467F
:1030B000126942F001021A6100BF4FF0E02210696C
:1030C00000F001021AB100F48032002AF5D04FF06E
:1030D000E022126922F001024FF0E0231A6100227F
:1030E0009A617047160000200146114A12784A433F
:1030F0004FF0E0235A6100229A611A46126942F0A9
:1031000001021A6100BF4FF0E022106900F00102D5
:103110001AB100F48032002AF5D04FF0E022126993
:1031200022F001024FF0E0231A6100229A617047F9
:1031300014000020A820FEF7E7FF4FF4E130FFF76E
:10314000E7F9FDF7C5FDFDF731FEFDF7F7FDFDF7EA
:1031500041FEC4E00A20FFF785FF6148806D6049A9
:10316000496D88421BD05E4A926D12795C4B9B6D13
:103170001B78D21A521CD1B2594A926D1068FDF7D1
:10318000BDFE5748806D0830554988650846806DFA
:10319000C96D884203D15248001D011F88655148FE
:1031A000007800F0020090B14F48D0F80404642881
:1031B00006D34EA0FFF70AF800204B49C1F80404DB
:1031C0004948D0F80404401C4749C1F80404454864
:1031D000007800F001000028BBD04348D0F800245C
:1031E000434850F8221043A0FEF7F0FF3E48D0F8C5
:1031F00000143F4810F8210000F00300002865D1BA
:1032000008210420FEF716FB002413E0A202364931
:10321000B1F8001402EB01404FF480623249FFF72D
:103220004BFA374901EB84204A142F49FEF7FDFB86
:10323000601CC4B22C48D0F800142D4850F821006E
:10324000B4EB902FE2D32848D0F80014284810F8A7
:10325000210000F00300F0B1A3022349B1F80014EB
:1032600003EB01402049D1F80034214911F8231023
:1032700001F003021C49FFF71FFA1B49D1F8003483
:103280001B4911F8231001F003021D4901EB8420B2
:103290001549FEF7CAFB1448D0F8000428B90020ED
:1032A0001349091F0860FDF781FD00BFBFF34F8F71
:1032B0001448006800F4E06013490843001D1149F8
:1032C0000860BFF34F8F00BF00BFFEE70FA0FEF7FF
:1032D0007DFF0448006820F001000249086039E7DA
:1032E0007C140020000000206C000020430000003F
:1032F00020000020E995BFE5BAA625640000000083
:10330000000001080CED00E00000FA05E995BFE5BA
:10331000BAA6E99499E8AFAF00000000DDDDDDDD7D
:10332000DCBBBBDDDDDDDDDDDDDDDDDD9888888856
:1033300088888888777777777788888885555556FD
:103340006666666666666666666888888333333254
:1033500022222222222222222228888DE8AFB7E8C8
:10336000AEBEE7BDAE4F5441E78988E69CACE58F21
:10337000B7EFBC8CE6A0BCE5BC8FE4B8BA564552AA
:1033800053494F4E2D56312E302D323032352D309F
:10339000352D3032392D31313A33380D0A000000E5
:1033A000E9809AE8BF87586D646F656DE58D8FE899
:1033B000AEAE2CE4B8B2E58FA3494150E4B88BE837
:1033C000BDBD41E58CBAE7A88BE5BA8FEFBC8CE4B4
:1033D000BDBFE794A82E62696EE6A0BCE5BC8F0D68
:1033E0000A00000004340008000000201C00000057
:1033F000B0270008203400081C000020C41800007A
:10340000C0270008000000000000000001020304C3
:103410000102030406070809000000000000000084
:040000050800018965
:00000001FF
