:020000040800F2
:10000000B0180020A90100088D110008590F000840
:1000100089110008650A00084F1900080000000057
:10002000000000000000000000000000BF130008F6
:100030005F0C00080000000009120008D514000839
:10004000C3010008C3010008C3010008C301000880
:10005000C3010008C3010008C3010008C301000870
:10006000C3010008C3010008C3010008C301000860
:10007000C3010008C3010008C3010008C301000850
:10008000C3010008C3010008C3010008C301000840
:10009000C3010008C3010008C3010008C301000830
:1000A000C3010008C3010008C3010008C301000820
:1000B000C3010008C3010008C3010008C301000810
:1000C000C3010008C3010008C3010008C301000800
:1000D000C30100086D160008C3010008C301000831
:1000E000C3010008C3010008C3010008C3010008E0
:1000F000C3010008C3010008C3010008C3010008D0
:10010000C3010008C3010008C3010008C3010008BF
:10011000C3010008C3010008C3010008C3010008AF
:10012000C3010008C3010008C3010008C30100089F
:10013000C3010008C3010008C3010008C30100088F
:10014000C3010008C3010008C3010008C30100087F
:10015000C3010008C3010008C3010008C30100086F
:10016000C3010008C3010008C3010008C30100085F
:10017000C3010008C3010008C3010008C30100084F
:10018000C3010008C3010008DFF810D000F036FA00
:100190000048004781240008AFF30080B018002019
:1001A00080F30888704700000648804706480047EB
:1001B000FEE7FEE7FEE7FEE7FEE7FEE7FEE7FEE717
:1001C000FEE7FEE71515000889010008D2B201E03C
:1001D00000F8012B491EFBD270470022F6E710B54C
:1001E00013460A4604461946FFF7F0FF204610BDA5
:1001F000421C10F8011B0029FBD1801A704730B552
:100200000B46014600202022012409E021FA02F5D4
:100210009D4205D303FA02F5491B04FA02F528446E
:10022000151EA2F10102F1DC30BD2DE9F05F05469B
:10023000002092469B4688460646814640241BE0A5
:10024000284641464746224600F0F9F953465A46A9
:10025000C01A914110D311461846224600F0E0F929
:100260002D1A67EB01084F4622460120002100F0BD
:10027000D7F917EB00094E41201EA4F10104DFDC81
:10028000484631462A464346BDE8F09F2DE9FE4FD9
:10029000804681EA0300C00F0C46009021F0004127
:1002A00023F00045B8EB0200A94105D240462146A3
:1002B00090461C460B46024623F00040104347D0B0
:1002C000270DC7F30A00C3F30A510290401A0190A8
:1002D00040286BDAC3F3130040F4801B0098924669
:1002E00020B10023D2EB030A63EB0B0B01985946B4
:1002F000C0F14002504600F093F906460D465046C4
:100300005946019A00F0ABF910EB08006141002456
:1003100087EA115284EAE7731A4340D0009A62B325
:10032000019A012A4FEA075215DC001B61EB02011A
:100330004FF0004202EA0752CDE90042001C41F5AD
:10034000801132462B4600F0ABF903B0BDE8F08FC8
:1003500040462146F9E7001B61EB0201001C41F514
:10036000801300185B412018A2F5001747EB03012A
:1003700040EAD570B6196D4111E06D084FEA3606B6
:1003800045EAC0754FEA0752001B61EB0201001CF1
:1003900041F5801149084FEA3000001951413246B9
:1003A0002B4603B0BDE8F04F00F06BB90098012276
:1003B00040000023D0EB020263EBE073009821467B
:1003C0004FEAE074B8EB000061EB0401E9E783F069
:1003D00000435BE781F0004158E72DE9FE4F81EAD9
:1003E000030404F0004421F0004100944FF0000B9E
:1003F00023F0004350EA01045ED052EA03045BD0CC
:10040000C3F30A54C1F30A552C44A4F2F334019403
:10041000A0FB0254C1F3130141F48011C3F3130391
:1004200043F4801301FB024400FB034E840A970A45
:1004300044EA815447EA8357A4FB076802958D0A72
:1004400005FB07854FEA932C04FB0C542705029DFE
:100450004FEA065847EA1637B5EB08056EEB070C6E
:10046000870E920E47EA811742EA8312A7FB020128
:10047000B6EB0B0164EB00042B0D43EA0C335E1862
:1004800044EB1C50DA465146E7FB0201C5F3130466
:100490004FEA0B3343EA14534FEA0432019C43EA18
:1004A0000603A4F10C040294009CCDE900B400F012
:1004B000F7F803B0BDE8F08F00200146F9E72DE919
:1004C000F04D81EA030404F0004B21F0004514468E
:1004D0004FF0000A23F0004150EA050220D054EA10
:1004E00001021DD0C5F30A570246C5F31303C1F339
:1004F0001300C1F30A5640F4801543F48013A7EBB0
:100500000608101BD64608F2FD3873EB050002D32F
:1005100008F1010801E092185B41B8F1000F03DA1D
:1005200000200146BDE8F08D00204FF48011064602
:1005300084460EE0171B73EB050705D3121B63EB14
:10054000050306434CEA010C49084FEA30009218B3
:100550005B4150EA0107EDD152EA030012D082EA72
:10056000040083EA0501084305D0101BAB4106D205
:100570000122002306E000224FF0004302E06FF06A
:10058000010253101AEB06004CEB085110EB0A0065
:1005900041EB0B01BDE8F04D00F073B8C1F30A5216
:1005A000C1F3130140F2FF3341F480119A4202DAA1
:1005B00000200146704740F233439A42A2F2334290
:1005C00002DC524200F03BB800F02AB830B5041EFD
:1005D00071F1000404DB4FF00044404264EB010180
:1005E000141E73F1000405DB1C464FF00043524219
:1005F00063EB0403994208BF904230BD064C074D9F
:1006000006E0E06840F0010394E8070098471034E2
:10061000AC42F6D3FFF7BCFDE82500080826000829
:10062000202A04DB203A00FA02F1002070479140B2
:10063000C2F1200320FA03F3194390407047202AA7
:1006400004DB203A21FA02F00021704721FA02F37C
:10065000D040C2F120029140084319467047202A39
:1006600006DBCB17203A41FA02F043EAE07306E0DA
:1006700041FA02F3D040C2F12002914008431946EA
:10068000704710B5141E73F1000408DA401C41F1E4
:10069000000192185B411A4301D120F0010010BD06
:1006A0002DE9F04D92469B4611B1B1FA81F202E07C
:1006B000B0FA80F220329046FFF7B2FF04460F46B0
:1006C00040EA0A0041EA0B0153465A46084313D058
:1006D000114653EA010019D0C8F140025046FFF715
:1006E000AEFF05460E46504659464246FFF798FF74
:1006F000084305D0012004E020463946BDE8F08DCE
:100700000020054346EAE0762C4337430A98630508
:10071000E40AA0EB08000022FD0A44EA47540A302C
:1007200002D500200146E9E7010510196941DDE91C
:10073000084500196941BDE8F04DA2E710B500F089
:100740008FFA10BD2DE9F04106460F46154600F020
:100750009DFCA02000F04AFC642000F0CFFCF0B229
:1007600000F044FC642000F0C9FC00F08FFCA120E4
:1007700000F03CFC642000F0C1FC00240CE000F020
:10078000EDFB3855681EA04202D100F063FC01E089
:1007900000F00AFC601C84B2AC42F0DB00F094FC78
:1007A0000020BDE8F081000010B530210448FFF7BB
:1007B00014FD302202490020FFF7C4FF10BD0000E5
:1007C0001C00002070B506460D4600F05FFCA0201E
:1007D00000F00CFC642000F091FC08B1012070BD19
:1007E000304600F003FC642000F088FC08B10220D1
:1007F000F5E700240AE0285D00F0F8FB642000F033
:100800007DFC08B10320EAE7601CC4B2082CF2DBCF
:1008100000F05AFC0020E2E770B5084D00240AE021
:1008200005EBC401E206100EFFF7CCFF0A2001F031
:10083000BFFD601CC4B2062CF2D370BD1C000020AA
:1008400010B5142000F050F8E0B911A000F0A6FE99
:1008500015480068154988420DD115A000F09EFE8C
:100860001648006840F0010014490860002014494F
:10087000C1F800040BE013A000F090FE144800F053
:100880006BFC04E013A000F089FE00F071F810BDCD
:10089000E4B88DE8BF9BE585A5426F6F744C6F612E
:1008A0006465720D0A0000001C0000204433221110
:1008B0004F5441E4BA8BE4BBB60D0A00000000209F
:1008C0004C000020E8B7B3E8BDAC4150500D0A0021
:1008D00000000108E8BF9BE585A5426F6F744C6F6F
:1008E000616465720D0A000070B504460A2094FB2D
:1008F000F0F529460BA000F051FE08E0642001F05D
:1009000057FD13480078772801D1012070BD201EC3
:10091000A4F10101CCB2F1D10EA000F03FFE002005
:10092000F4E70000E59CA82564E7A792E58685E842
:10093000BE93E585A5772CE8BF9BE585A5426F6F43
:10094000744C6F61646572E591BDE4BBA40D0A004F
:1009500050040020E4B88DE8BF9BE585A5426F6F89
:10096000744C6F61646572E591BDE4BBA40D0A002F
:1009700010B50CA000F012FE0FA000F00FFE12A0A8
:1009800000F00CFE18A000F009FE1DA000F006FE0D
:1009900021A000F003FE28A000F000FE2EA000F031
:1009A000FDFD10BD426F6F744C6F61646572E4BFF2
:1009B000A1E681AF0D0A00005B315DE693A6E999DF
:1009C000A441E58CBA0D0A005B325DE4B8B2E58F54
:1009D000A3494150E4B88BE8BDBD41E58CBAE7A816
:1009E0008BE5BA8F0D0A00005B335DE8AEBEE7BD54
:1009F000AE4F5441E78988E69CACE58FB70D0A00FD
:100A00005B345DE69FA5E8AFA24F5441E78988E6D5
:100A10009CACE58FB70D0A005B355DE59091E5A4D0
:100A200096E983A8466C617368E4B88BE8BDBDE7BE
:100A3000A88BE5BA8F0D0A005B365DE4BDBFE79475
:100A4000A8E5A496E983A8466C617368E58685E706
:100A5000A88BE5BA8F0D0A005B375DE9878DE590BD
:100A6000AF0D0A0000BFFEE721B1026842F00102AB
:100A7000026003E0026822F0010202607047000099
:100A8000016821F001010160002101604160816085
:100A9000C1600161212141614A49884204D13D215F
:100AA000484A103A91608CE046491831884205D195
:100AB0004FF47461434A103A916082E04149303109
:100AC000884205D14FF474113E4A103A916078E0A3
:100AD0003C494831884205D14FF07461394A103A97
:100AE00091606EE037496031884204D13649354A19
:100AF000103AD16065E033497831884204D13349F6
:100B0000304A103AD1605CE02E499031884204D1DD
:100B10002F492C4A103AD16053E02A49A831884223
:100B200005D14FF03D51274A103AD16049E029499B
:100B3000884204D13D21274A083A116041E0254905
:100B40001831884205D14FF47461224A083A116085
:100B500037E020493031884205D14FF474111D4AE5
:100B6000083A11602DE01B494831884205D14FF009
:100B70007461184A083A116023E0164960318842CE
:100B800004D11149134A121F11601AE0114978313A
:100B9000884204D10D490F4A121F116011E00D491E
:100BA0009031884204D10A490A4A121F116008E0B4
:100BB0000849A831884204D14FF03D51054A121F1F
:100BC00011607047106002403D000020400F00207F
:100BD00000003D20106402400146486880B2704722
:100BE00010B500220268134B1A40CC680B682343EF
:100BF0004C6923438C692343CC6923430C6A234308
:100C00004C6A23438C6A23434C6B23438C6B2343F2
:100C10001A430260426922F00702D1E90B342343F0
:100C20001A4342610B6943604B6883608B68C36001
:100C300010BD00003F801CF0416070470021016042
:100C400041608160C160016141618161C161016296
:100C500041628162C1620163416381637047704791
:100C60001CB50121022000F0D1FA01208DF804000A
:100C70008DF8060000208DF8070003208DF8050090
:100C8000000200906946024800F0EEF81CBD00002A
:100C90000004024070B505460E4600F0ADF8002491
:100CA00005E02819002100F007F8601CC4B2B44226
:100CB000F7DB00F06FF870BD70B504460A460026F9
:100CC000092502B909E0012A01D1160205E0022A2C
:100CD00001D1160201E04FF4407600F09FF805467E
:100CE000092D28D11548006820F440701349086088
:100CF00008460068304308600846006820F0F800A5
:100D000008600846006844F0020108430B49086087
:100D10000846006840F48030086000F07FF805461F
:100D20000648006820F00200044908600846006890
:100D300020F0F8000860284670BD0000103C02401A
:100D400009201349096801F48031B1F5803F01D1D0
:100D500001201CE00E49096801F0100109B10620CC
:100D600015E00B49096801F4807109B102200EE019
:100D70000749096801F0E00109B1072007E00449CB
:100D8000096801F0020109B1082000E0092070475C
:100D90000C3C02400348006840F0004001490860F4
:100DA00070470000103C024030B502460C46092551
:100DB00000F034F80546092D19D10E48006820F4DA
:100DC00040700C4908600846006840F400700860F4
:100DD0000846006840F001000860146000F01EF84A
:100DE00005460448006820F00100024908602846D2
:100DF00030BD0000103C02400548006800F0004093
:100E000028B1044802490C3908600348086070475B
:100E1000103C024023016745AB89EFCD08B509209E
:100E20000090FFF78DFF009002E0FFF789FF009030
:100E30009DF800000128F8D09DF8000008BD2DE9BC
:100E4000F04107460D461646FFF7D6FF002405E0A1
:100E500055F824103846FFF7A7FF641CB442F7D3B7
:100E6000FFF798FFBDE8F081F0B50A4600210023A6
:100E7000002400BF3DE0012505FA01F3156805EAED
:100E800003049C4234D105684F000326BE40B5439D
:100E9000056015794E00B540066835430560157943
:100EA000012D02D01579022D16D185684F00032639
:100EB000BE40B543856055794E00B54086683543E0
:100EC0008560456801268E40B54345604568967942
:100ED0008E40B6B235434560C5684F000326BE401C
:100EE000B543C560D5794E00B540C6683543C56089
:100EF000491C1029BFD3F0BDF0B5002300244D07D5
:100F0000ED0E02FA05F3CE1000F1200555F826503B
:100F10004E07F70E0F26BE40B543CF1000F1200656
:100F200046F82750CE1000F1200555F8265045EA26
:100F30000304CE1000F1200545F82640F0BD02461E
:100F4000002013690B400BB1012000E00020704726
:100F5000418370470183704700BFFEE770B50025ED
:100F600000241AE04FF480710E48FFF7F3FF0220CF
:100F700001F060FA4FF400710A48FFF7E0FF10B18A
:100F80008020204105434FF480710648FFF7E0FFC1
:100F9000022001F04FFA601CC4B2082CE2DB2846A4
:100FA00070BD00000004024010B54FF400710E48FF
:100FB000FFF7CEFF022001F03DFA4FF480710A489E
:100FC000FFF7C8FF022001F035FA4FF480710648A0
:100FD000FFF7BEFF022001F02DFA4FF40071024826
:100FE000FFF7B8FF10BD00000004024070B50546D1
:100FF0004FF480711648FFF7ABFF002420E08020FB
:101000002041284028B14FF400711148FFF7A2FF9A
:1010100004E04FF400710E48FFF79AFF022001F040
:1010200009FA4FF480710A48FFF794FF022001F09B
:1010300001FA4FF480710648FFF78AFF601CC4B2C2
:10104000082CDCDB4FF400710148FFF783FF70BD13
:101050000004024010B54FF400710B48FFF77AFF0F
:10106000022001F0E7F94FF480710748FFF772FFA3
:10107000022001F0DFF94FF480710348FFF768FFA9
:10108000022001F0D7F910BD0004024010B54FF462
:1010900000710C48FFF75EFF4FF480710948FFF7BD
:1010A00059FF022001F0C6F94FF400710548FFF71F
:1010B0004FFF022001F0BEF94FF480710148FFF7A5
:1010C00047FF10BD0004024010B54FF400710A48FC
:1010D000FFF73EFF4FF480710748FFF73BFF022008
:1010E00001F0A8F94FF400710348FFF733FF022025
:1010F00001F0A0F910BD00000004024010B5044644
:101100004FF400711348FFF725FF022001F092F918
:101110004FF480710F48FFF71DFF022001F08AF99C
:101120004FF400710B48FFF70AFF48B14FF480718C
:101130000848FFF70DFF022001F07CF9012010BDE7
:101140004FF480710348FFF703FF022001F072F9AA
:101150000020F4E70004024010B504462068B0F116
:10116000005F0CD306492068884208D82068FFF742
:1011700017F804496068086008460068804710BD99
:10118000FFFF01201800002000BFFEE770470000AD
:1011900070B5002100230F22C4781CB3174C2468BB
:1011A00004F4E064C4F5E064C4F30721C1F104046D
:1011B000E3B20A4144789C40E1B284781440214370
:1011C0000C07210E0E4C05786155047804F01F05BC
:1011D0000124AC4005786D11AD0005F1E025C5F89E
:1011E000004109E0047804F01F050124AC40054DDE
:1011F0000678761145F8264070BD00000CED00E041
:1012000000E400E080E100E07047000029B1064AF8
:1012100012680243044B1A6004E0034A12688243D6
:10122000014B1A60704700003038024029B1064A6D
:1012300012680243044B1A6004E0034A12688243B6
:10124000014B1A607047000044380240F0B500219D
:1012500000220024022500260223324F3F6807F0B7
:101260000C0121B1042905D0082937D105E02E4F02
:10127000076036E02D4F076033E02A4F3F1F3F687D
:10128000C7F38056274F3F1F3F6807F03F036EB1FB
:10129000264FB7FBF3F7DFF88CC0ACF1040CDCF899
:1012A00000C0CCF3881C07FB0CF40CE01E4FB7FB0E
:1012B000F3F7DFF870C0ACF1040CDCF800C0CCF33D
:1012C000881C07FB0CF4174F3F1F3F68C7F301470B
:1012D0007F1C7D00B4FBF5F7076002E0124F07604A
:1012E00000BF00BF0F4F3F6807F0F0010909104F22
:1012F0007A5C0768D74047600A4F3F6807F4E051BF
:10130000890A0B4F7A5C4768D7408760054F3F6872
:1013100007F46041490B064F7A5C4768D740C760C5
:10132000F0BD0000083802400024F40000127A00EA
:101330000400002070B505460E46002405E0FF209D
:1013400000F006F82855601C84B2B442F7DB70BD8B
:1013500010B5044600BF02210A4800F022F8002818
:10136000F9D02146074800F028F800BF01210548C0
:1013700000F017F80028F9D0024800F01BF8C0B2BE
:1013800010BD00000030014070B505460E46002437
:1013900004E0285DFFF7DCFF601C84B2B442F8DB98
:1013A00070BD0246002013890B400BB1012000E004
:1013B00000207047014688897047818170477047D7
:1013C0000CB50020019000903448006840F4803053
:1013D0003249086000BF3148006800F400300090D6
:1013E0000198401C0190009818B90198B0F5A04FE1
:1013F000F1D12A48006800F4003010B101200090BB
:1014000001E0002000900098012846D12348403098
:10141000006840F080502149403108602048006851
:1014200040F440401E4908601C48083000681B49D1
:10143000083108600846006840F40040086008462B
:10144000006840F4A05008601648091F0860081F93
:10145000006840F08070091F086000BF0F480068F6
:1014600000F000700028F9D040F205700E490860C5
:101470000A480830006820F0030008490831086075
:101480000846006840F00200086000BF03480830CA
:10149000006800F00C000828F8D10CBD00380240AC
:1014A0000070004008544007003C0240042808D166
:1014B0004FF0E021096941F004014FF0E022116191
:1014C00007E04FF0E021096921F004014FF0E0222C
:1014D000116170477047000010B504466FF00400BA
:1014E000FFF7E4FFE11704EB5171C1F3C701074AAD
:1014F00011701046007800EB4001C1EBC0104FF6B0
:10150000FF7101EAC0000249088010BD14000020EC
:101510001600002010B51548006840F4700013490B
:1015200008601348006840F001001149086000207D
:101530000F49083108600E4800680E4908400C4900
:1015400008600D48091D0860081F006820F480200D
:10155000091F0860002006490C310860FFF730FFC2
:101560004FF0006001498039086010BD88ED00E04F
:1015700000380240FFFFF6FE103000240548011F2E
:10158000486588654830C865002008800248496D74
:101590000860704754140020500400200FB438B580
:1015A00005A800901248009A049900F095FA0020CE
:1015B000009000240DE000BF80210E4800F0F7F8F5
:1015C0000028F9D00A48015D0A4800F0BCF9601C07
:1015D00084B20748FEF70CFEA042ECD800BF4021C1
:1015E000044800F0E4F80028F9D038BC5DF814FB9A
:1015F000500C00200010014000B58FB0012188057B
:10160000FFF704FE1648FFF73BFA6846FFF716FBA4
:1016100040F201100490C0060090002003900B904F
:10162000104802904FF480600690002008900990C6
:101630000D4801900020079005904FF440300A902B
:1016400069460748FFF7CCFA01210548FFF70CFA75
:10165000012240210448001F00F0A0F80FB000BD97
:1016600088640240500400200410014010B510218D
:10167000304800F0A9F830B940F225512D4800F06B
:10168000A3F8002855D02CA0FFF788FF1021294887
:1016900000F060F81021274800F065F8254800F0B8
:1016A0004DF9294908702948FFF796FA40F20111CF
:1016B000081A2749088008460088401E2249084425
:1016C0002349496D48602248406D083020494865EB
:1016D0000846406DC96D884203D11D48001D011F99
:1016E00048651B480088C0F50060FF2807DD1648E4
:1016F0001749496D086000201549088006E0144824
:101700000088114908441249496D086000210F48BA
:10171000FFF7AAF90E48406D00680C490C310860CB
:1017200040F201110948FFF787FA01210748FFF746
:101730009BF910BD00100140E68EA5E694B6E58841
:10174000B0E695B0E68DAE005004002088640240FB
:101750005014002001F40072B2F5007F00D100BFE8
:10176000CA430280704710B50022002340F66A1475
:10177000A14200D100BF0A1201249440A3B2DC436D
:10178000048010BD21B1828942F40052828104E0BC
:1017900082894DF6FF731A40828170471AB1838A9D
:1017A0000B43838202E0838A8B4383827047024625
:1017B0000020B1F5007F00D100BF13880B400BB1B2
:1017C000012000E00020704770B50246002400238D
:1017D0000025002040F66A16B14200D100BFC1F3D7
:1017E000421501F01F03012606FA03F3012D02D171
:1017F0009689334006E0022D02D1168A334001E07B
:10180000968A33400C12012606FA04F416883440F6
:1018100013B10CB1012000E0002070BDF0B503460B
:10182000002400260025002040F66A17B94200D1A6
:1018300000BF1846C1F3421401F01F06012707FA42
:1018400006F5012C01D10C3004E0022C01D110303E
:1018500000E014301AB107682F43076002E0076800
:10186000AF430760F0BD00002DE9FF4705460E4677
:101870000024A14600BFA046B08900B100BF2C8A59
:1018800024F44054F08804432C82AC8941F20C606B
:101890008443B08831890843718908430443AC818B
:1018A000AC8A24F44074B0890443AC826846FFF7E4
:1018B000CDFC2048854202D01F48854202D1DDF888
:1018C0000C9001E0DDF80890A88900F4004040B1D8
:1018D00009EBC90000EB091031684900B0FBF1F7D2
:1018E00007E009EBC90000EB091031688900B0FB83
:1018F000F1F76420B7FBF0F004012009642101FB3B
:101900001078A88900F4004040B1322000EBC800F4
:10191000B0FBF1F000F00700044308E0322000EBD8
:1019200008106421B0FBF1F000F00F0004432C819B
:10193000BDE8FF870010014000140140014688887F
:10194000C0F308007047C1F308028280704700BFEF
:10195000FEE7000010B588B0044601211020FFF713
:1019600065FC01210846FFF751FC4FF4C06006906A
:1019700002208DF81C0000208DF81E0003208DF839
:101980001D0001208DF81F0006A92348FFF76CFAFF
:10199000072209212048FFF7AFFA07220A211E4833
:1019A000FFF7AAFA02940020ADF80C00ADF80E0083
:1019B000ADF810000C20ADF812000020ADF81400B6
:1019C00002A91648FFF750FF01211448FFF7DAFE7D
:1019D000012240F224411148FFF720FF012240F28A
:1019E00025510E48FFF71AFF25208DF8040000202E
:1019F0008DF805008DF8060001208DF8070001A87C
:101A0000FFF7C6FBFFF7F8FDFFF7B8FD102103480D
:101A1000FFF7A0FE08B010BD00000240001001401A
:101A200010B500F03FF84FF480410648FFF790FAF8
:101A30000620FFF78DFC4FF480410248FFF78AFA39
:101A400010BD000000040240F8B504460D461646DD
:101A50000020009003208DF80000200C8DF801007C
:101A6000200A8DF80200E0B28DF8030000F01AF8A9
:101A7000FFF7D6FF4FF480410948FFF769FA0421C8
:101A80006846FFF781FCB1B22846FFF753FC4FF4DC
:101A900080410348FFF75EFA00F004F8F8BD00004B
:101AA0000004024010B500BF4FF480410948FFF721
:101AB0004FFA0520FFF74CFCFF20FFF749FC0446D6
:101AC0004FF480410348FFF745FA04F00100002875
:101AD000EAD110BD0004024037B514460846064B53
:101AE0006A46214600F0DCF804466946002000F012
:101AF0005AFC20463EBD0000A723000802E008C8AB
:101B0000121F08C1002AFAD170477047002001E077
:101B100001C1121F002AFBD1704700002DE9FF5FB1
:101B200082B00021DDE90430020DDDF840B003434E
:101B300018D044F61050A2F2FF3242431514119807
:101B400001281FD0A5EB0B00401C5FEA000A4FF0F4
:101B500000064E4FDFF83891B046504615D5CAF111
:101B6000000413E0119801244AA3012801D16FEA6F
:101B70000B010298119AC0E90031C0E9024206B097
:101B8000BDE8F09FCBF10000DFE704460021404AAA
:101B9000491842EB0450CDE9001012E0E00707D0ED
:101BA00032463B4640464946FEF717FC804689468A
:101BB00032463B4610461946FEF70FFC06460F46D6
:101BC0006410002CEAD1DDE90401DDE90023BAF15B
:101BD000000F06DAFEF701FC42464B46FEF7FDFB1E
:101BE00005E0FEF76CFC42464B46FEF768FC0446F7
:101BF0000E460022284BFEF7E9FC03D84FF0FF30D9
:101C0000014607E00022254B20463146FEF73EFB09
:101C1000FEF7C4FC102409E0002C0ADB0A22002392
:101C2000FEF703FB039B30321A55641E50EA010293
:101C3000F2D1641C039AC4F111031444119A012ACD
:101C400003D0012208430DD10AE0084304D000204C
:101C50004FF0110B119072E7A3EB0B056D1E0DE019
:101C60005B4504DD4FF0000205F1010504E003DAF5
:101C70004FF00002A5F10105002AECD0029811995D
:101C8000C0E90231C0E9004579E7000000001440D6
:101C90000000F03F300000000000F0430000E03F93
:101CA0002DE9FF4F95B09A46884606460025EEE19D
:101CB000252877D100242746F94A0121039400E022
:101CC000044316F8013F203B01FA03F01042F7D11C
:101CD00030782A2811D06FF02F033078A0F130022D
:101CE000092A16D8039A44F0020402EB820203EB9D
:101CF00042021044761C0390EFE758F8042B03923D
:101D0000002A03DA504244F40054039044F00204E1
:101D1000761C30782E2816D116F8010F44F00404F2
:101D20002A280DD06FF02F023078A0F13003092B54
:101D300009D807EB870302EB4303C718761CF3E7C8
:101D400058F8047B761C30786C280FD006DC4C28C1
:101D500017D068280DD06A2814D104E0742810D058
:101D60007A280FD10DE044F400140AE044F4801402
:101D700001E044F440147278824202D104F58014E8
:101D8000761C761C307866280BD013DC582877D068
:101D900009DC002875D04528F6D04628F4D047281D
:101DA0001AD193E118E0632835D0642879D06528EA
:101DB00012D18BE1702873D008DC6728F1D0692834
:101DC0006FD06E280DD06F2806D1ACE073282CD0D0
:101DD000752874D0782853D05246179990476D1CB7
:101DE00054E1C4F30250022809D003280DD0D8F8DA
:101DF000001004280DD00D6008F1040846E1D8F861
:101E00000010EA17C1E90052F6E7D8F800100D807B
:101E1000F2E70D70F0E718F8041B8DF800100020B1
:101E20008DF80100EB46012003E058F804BB4FF0A9
:101E3000FF3061074FF0000102D40DE009F101010C
:101E40008946B9420FDA8145F8DB1BF809100029F1
:101E5000F4D108E009F1010189468142FADB1BF85F
:101E600009100029F6D103985346A0EB0907214633
:101E70003846179A00F080FA284400EB090507E07D
:101E800044E008E10DE01BF8010B5246179990471A
:101E9000B9F10109F7D2534621463846179AF2E0C4
:101EA00039E00A21C4F302524FF0000B0091022ADC
:101EB00006D058F8040BC117032A09D00AE023E022
:101EC00008F1070020F00702F2E80201904605E061
:101ED00000B2C117042A01D140B2C117002906DAA5
:101EE0000A460021404261EB02012D2202E0220558
:101EF00004D52B228DF80420012203E0E20701D053
:101F00002022F7E7914657E00A2100E010214FF028
:101F1000000B00910BE010214FF0000B44F0040483
:101F20000827009103E008204FF0000B0090C4F355
:101F30000252022A05D058F8040B0021032A08D0C7
:101F400008E008F1070020F00702F2E802019046DD
:101F500003E080B2042A00D1C0B24FF0000922078A
:101F60002AD53278702A07D0DDF800C08CF0100C2A
:101F70005CEA0B0C05D00EE040228DF80420012213
:101F800008E050EA010306D030238DF804308DF8C4
:101F9000052002229146009B83F0080353EA0B03BD
:101FA0000AD150EA010201D1620705D530228DF82D
:101FB00004204FF001097F1E3278582A04D039A23C
:101FC0000C920CAA02920BE03BA2F9E75B46009A46
:101FD000FEF72BF90C9B9B5C029A521E0292137027
:101FE00050EA0102F2D1029804A9081A00F1200B6C
:101FF000600702D524F4803400E001275F4502DD4C
:10200000A7EB0B0000E0002000EB0B010090039811
:102010004944401A0390E00306D453462146179AD8
:10202000039800F0A9F90544002706E001A85246EC
:10203000C05D179990476D1C7F1C4F45F6DBE00390
:102040000CD553462146179A039800F095F905449C
:1020500004E030205246179990476D1C0099481EA5
:1020600000900029F5DC08E00298029952460078B9
:10207000491C0291179990476D1CBBF10001ABF10F
:10208000010BF1DC5BE100F065F90544761C30786A
:1020900000287FF40DAE19B02846BDE8F08F00008F
:1020A000092801003031323334353637383961622E
:1020B00063646566000000003031323334353637F2
:1020C000383941424344454600000000600700D4CF
:1020D000062708F1070020F00700F0E802238046F9
:1020E00003F0004C5FEA0C0001D097A009E0200546
:1020F00001D596A005E0E00701D095A001E0AFF280
:102100004C001390307823F0004365280CD006DC97
:10211000452809D046281DD047287FD13BE06628B6
:1021200018D067287AD136E00021112F01DB112069
:1021300000E0781CCDE9000104A90CA8FFF7EEFC33
:10214000DDE90D010C9A4FF0000B07F10109109227
:1021500000914EE04FF000400097CDE9011004A936
:102160000CA8FFF7DBFCDDE90D020C9B0F994FF08B
:10217000000B91461093009211B9791C00EB0109F4
:10218000B7EB090003D4C0F1FF3B07F10109A9EB4C
:102190000700019042E0012F00DA01270021112FF2
:1021A00001DD112000E03846CDE9000104A90CA8AA
:1021B000FFF7B4FCDDE90D010C9A00914FF0000B24
:1021C000B946109221070FD4009A4A4503DA914686
:1021D00001E0A9F10109B9F1010F05DD109AA9F19A
:1021E0000101515C3029F4D0B84202DA10F1040F39
:1021F00003DA0121CDE9011010E0002803DC83445B
:10220000A9EB000102E0411C494500DD8946A0EB35
:102210000B00401C01904FF000400290200705D4B5
:102220000198484502DB4FF0FF30019000208DF807
:102230004B0002980DF14B07B0F1004F25D0022062
:102240000C902B200D90029800280CDA404202904E
:102250002D200D9007E00A210298FDF7D0FF3031C4
:10226000029007F8011D0C99481E0C900029F2DC21
:1022700002980028EFD1791E0D980870307800F090
:10228000200040F0450007F8020D11A8C01BC01D3A
:1022900002901398007800B1012000EB0901019829
:1022A00001EBE071029801440398401A401E03902C
:1022B000E00306D453462146179A039800F05CF8D1
:1022C00005441398007818B15246179990476D1C31
:1022D000E00323D553462146179A039800F04CF8A3
:1022E00005441BE0BBF1000F07DB0098584504DDF7
:1022F0001098179910F80B0001E0179930205246FA
:10230000904701980BF1010B401E05F1010501906A
:1023100004D12E205246179990476D1CB9F1000147
:10232000A9F10109DEDC05E017F8010B5246179907
:1023300090476D1C0299481E02900029F4DC534618
:102340002146179A03989EE62D0000002B000000FE
:10235000200000002DE9F041044600251E461746E6
:10236000880404D405E039462020B0476D1C641E63
:10237000F9D52846BDE8F0812DE9F0410446002555
:102380001E469046C80301D5302700E02027880468
:1023900004D505E041463846B0476D1C641EF9D5AA
:1023A0002846BDE8F0810A68531C0B601070704726
:1023B00070B504464FF4077094FBF0F0C6B24FF4CA
:1023C000077094FBF0F100FB114085B205E04FF47B
:1023D000077000F009F8701EC6B2002EF7D115B1D3
:1023E000284600F001F870BD0146114A12884A43A0
:1023F0004FF0E0235A6100229A611A46126942F0B6
:1024000001021A6100BF4FF0E022106900F00102E2
:102410001AB100F48032002AF5D04FF0E0221269A0
:1024200022F001024FF0E0231A6100229A61704706
:10243000160000200146114A12784A434FF0E0236B
:102440005A6100229A611A46126942F001021A6129
:1024500000BF4FF0E022106900F001021AB100F451
:102460008032002AF5D04FF0E022126922F00102FA
:102470004FF0E0231A6100229A6170471400002097
:10248000A820FFF729F84FF4E130FFF763FAFEF7D1
:1024900055F9FEF7C1F9FEF787F9FEF7D1F98AE0A1
:1024A0004548007800F001000028F8D04348D0F8F3
:1024B0000024434850F8221042A0FFF76FF83F482D
:1024C000D0F800143E4810F8210000F00300002866
:1024D00068D108210520FEF7DDFB002415E0A202EB
:1024E0003649B1F8001402EB01404FF480623349E1
:1024F000FFF7AAFA002101EB8421C8B24FF48062F1
:102500002E49FEF79CFC601CC4B22C48D0F8001485
:102510002B4850F82100B4EB902FE0D32748D0F897
:102520000014274810F8210000F00300F8B1A302BE
:102530002249B1F8001403EB01402049D1F80034DE
:102540001F4911F8231001F003021C49FFF77CFA20
:102550001A49D1F800341A4911F8231001F0030286
:10256000002101EB8421C8B21449FEF768FC13482E
:10257000D0F8000428B900201149091F0860FEF7AF
:102580004BF900BFBFF34F8F1148006800F4E060C3
:1025900010490843001D0E490860BFF34F8F00BF6C
:1025A00000BFFEE70CA0FEF7F9FF0348006820F02B
:1025B00001000149086073E7000000204C00002082
:1025C00020000020E995BFE5BAA6256400000000C0
:1025D0000CED00E00000FA05E995BFE5BAA6E99424
:1025E00099E8AFAF000000000826000800000020B6
:1025F0001C000000FC1A0008242600081C00002013
:10260000941800000C1B00080000000000000000EF
:102610000102030401020304060708090000000088
:0426200000000000B6
:040000050800018965
:00000001FF
